{
  "_format": "hh-sol-artifact-1",
  "contractName": "CarbonCreditToken",
  "sourceName": "contracts/CarbonCreditToken.sol",
  "abi": [
    {
      "inputs": [
        {
          "internalType": "address",
          "name": "initialOwner",
          "type": "address"
        }
      ],
      "stateMutability": "nonpayable",
      "type": "constructor"
    },
    {
      "inputs": [],
      "name": "ECDSAInvalidSignature",
      "type": "error"
    },
    {
      "inputs": [
        {
          "internalType": "uint256",
          "name": "length",
          "type": "uint256"
        }
      ],
      "name": "ECDSAInvalidSignatureLength",
      "type": "error"
    },
    {
      "inputs": [
        {
          "internalType": "bytes32",
          "name": "s",
          "type": "bytes32"
        }
      ],
      "name": "ECDSAInvalidSignatureS",
      "type": "error"
    },
    {
      "inputs": [
        {
          "internalType": "address",
          "name": "spender",
          "type": "address"
        },
        {
          "internalType": "uint256",
          "name": "value",
          "type": "uint256"
        }
      ],
      "name": "ERC1363ApproveFailed",
      "type": "error"
    },
    {
      "inputs": [
        {
          "internalType": "address",
          "name": "receiver",
          "type": "address"
        }
      ],
      "name": "ERC1363InvalidReceiver",
      "type": "error"
    },
    {
      "inputs": [
        {
          "internalType": "address",
          "name": "spender",
          "type": "address"
        }
      ],
      "name": "ERC1363InvalidSpender",
      "type": "error"
    },
    {
      "inputs": [
        {
          "internalType": "address",
          "name": "receiver",
          "type": "address"
        },
        {
          "internalType": "uint256",
          "name": "value",
          "type": "uint256"
        }
      ],
      "name": "ERC1363TransferFailed",
      "type": "error"
    },
    {
      "inputs": [
        {
          "internalType": "address",
          "name": "sender",
          "type": "address"
        },
        {
          "internalType": "address",
          "name": "receiver",
          "type": "address"
        },
        {
          "internalType": "uint256",
          "name": "value",
          "type": "uint256"
        }
      ],
      "name": "ERC1363TransferFromFailed",
      "type": "error"
    },
    {
      "inputs": [
        {
          "internalType": "address",
          "name": "spender",
          "type": "address"
        },
        {
          "internalType": "uint256",
          "name": "allowance",
          "type": "uint256"
        },
        {
          "internalType": "uint256",
          "name": "needed",
          "type": "uint256"
        }
      ],
      "name": "ERC20InsufficientAllowance",
      "type": "error"
    },
    {
      "inputs": [
        {
          "internalType": "address",
          "name": "sender",
          "type": "address"
        },
        {
          "internalType": "uint256",
          "name": "balance",
          "type": "uint256"
        },
        {
          "internalType": "uint256",
          "name": "needed",
          "type": "uint256"
        }
      ],
      "name": "ERC20InsufficientBalance",
      "type": "error"
    },
    {
      "inputs": [
        {
          "internalType": "address",
          "name": "approver",
          "type": "address"
        }
      ],
      "name": "ERC20InvalidApprover",
      "type": "error"
    },
    {
      "inputs": [
        {
          "internalType": "address",
          "name": "receiver",
          "type": "address"
        }
      ],
      "name": "ERC20InvalidReceiver",
      "type": "error"
    },
    {
      "inputs": [
        {
          "internalType": "address",
          "name": "sender",
          "type": "address"
        }
      ],
      "name": "ERC20InvalidSender",
      "type": "error"
    },
    {
      "inputs": [
        {
          "internalType": "address",
          "name": "spender",
          "type": "address"
        }
      ],
      "name": "ERC20InvalidSpender",
      "type": "error"
    },
    {
      "inputs": [
        {
          "internalType": "uint256",
          "name": "deadline",
          "type": "uint256"
        }
      ],
      "name": "ERC2612ExpiredSignature",
      "type": "error"
    },
    {
      "inputs": [
        {
          "internalType": "address",
          "name": "signer",
          "type": "address"
        },
        {
          "internalType": "address",
          "name": "owner",
          "type": "address"
        }
      ],
      "name": "ERC2612InvalidSigner",
      "type": "error"
    },
    {
      "inputs": [
        {
          "internalType": "uint256",
          "name": "maxLoan",
          "type": "uint256"
        }
      ],
      "name": "ERC3156ExceededMaxLoan",
      "type": "error"
    },
    {
      "inputs": [
        {
          "internalType": "address",
          "name": "receiver",
          "type": "address"
        }
      ],
      "name": "ERC3156InvalidReceiver",
      "type": "error"
    },
    {
      "inputs": [
        {
          "internalType": "address",
          "name": "token",
          "type": "address"
        }
      ],
      "name": "ERC3156UnsupportedToken",
      "type": "error"
    },
    {
      "inputs": [],
      "name": "EnforcedPause",
      "type": "error"
    },
    {
      "inputs": [],
      "name": "ExpectedPause",
      "type": "error"
    },
    {
      "inputs": [
        {
          "internalType": "address",
          "name": "account",
          "type": "address"
        },
        {
          "internalType": "uint256",
          "name": "currentNonce",
          "type": "uint256"
        }
      ],
      "name": "InvalidAccountNonce",
      "type": "error"
    },
    {
      "inputs": [],
      "name": "InvalidShortString",
      "type": "error"
    },
    {
      "inputs": [
        {
          "internalType": "address",
          "name": "owner",
          "type": "address"
        }
      ],
      "name": "OwnableInvalidOwner",
      "type": "error"
    },
    {
      "inputs": [
        {
          "internalType": "address",
          "name": "account",
          "type": "address"
        }
      ],
      "name": "OwnableUnauthorizedAccount",
      "type": "error"
    },
    {
      "inputs": [
        {
          "internalType": "string",
          "name": "str",
          "type": "string"
        }
      ],
      "name": "StringTooLong",
      "type": "error"
    },
    {
      "anonymous": false,
      "inputs": [
        {
          "indexed": true,
          "internalType": "address",
          "name": "owner",
          "type": "address"
        },
        {
          "indexed": true,
          "internalType": "address",
          "name": "spender",
          "type": "address"
        },
        {
          "indexed": false,
          "internalType": "uint256",
          "name": "value",
          "type": "uint256"
        }
      ],
      "name": "Approval",
      "type": "event"
    },
    {
      "anonymous": false,
      "inputs": [],
      "name": "EIP712DomainChanged",
      "type": "event"
    },
    {
      "anonymous": false,
      "inputs": [
        {
          "indexed": true,
          "internalType": "address",
          "name": "previousOwner",
          "type": "address"
        },
        {
          "indexed": true,
          "internalType": "address",
          "name": "newOwner",
          "type": "address"
        }
      ],
      "name": "OwnershipTransferred",
      "type": "event"
    },
    {
      "anonymous": false,
      "inputs": [
        {
          "indexed": false,
          "internalType": "address",
          "name": "account",
          "type": "address"
        }
      ],
      "name": "Paused",
      "type": "event"
    },
    {
      "anonymous": false,
      "inputs": [
        {
          "indexed": true,
          "internalType": "address",
          "name": "from",
          "type": "address"
        },
        {
          "indexed": true,
          "internalType": "address",
          "name": "to",
          "type": "address"
        },
        {
          "indexed": false,
          "internalType": "uint256",
          "name": "value",
          "type": "uint256"
        }
      ],
      "name": "Transfer",
      "type": "event"
    },
    {
      "anonymous": false,
      "inputs": [
        {
          "indexed": false,
          "internalType": "address",
          "name": "account",
          "type": "address"
        }
      ],
      "name": "Unpaused",
      "type": "event"
    },
    {
      "inputs": [],
      "name": "DOMAIN_SEPARATOR",
      "outputs": [
        {
          "internalType": "bytes32",
          "name": "",
          "type": "bytes32"
        }
      ],
      "stateMutability": "view",
      "type": "function"
    },
    {
      "inputs": [
        {
          "internalType": "address",
          "name": "owner",
          "type": "address"
        },
        {
          "internalType": "address",
          "name": "spender",
          "type": "address"
        }
      ],
      "name": "allowance",
      "outputs": [
        {
          "internalType": "uint256",
          "name": "",
          "type": "uint256"
        }
      ],
      "stateMutability": "view",
      "type": "function"
    },
    {
      "inputs": [
        {
          "internalType": "address",
          "name": "spender",
          "type": "address"
        },
        {
          "internalType": "uint256",
          "name": "value",
          "type": "uint256"
        }
      ],
      "name": "approve",
      "outputs": [
        {
          "internalType": "bool",
          "name": "",
          "type": "bool"
        }
      ],
      "stateMutability": "nonpayable",
      "type": "function"
    },
    {
      "inputs": [
        {
          "internalType": "address",
          "name": "spender",
          "type": "address"
        },
        {
          "internalType": "uint256",
          "name": "value",
          "type": "uint256"
        }
      ],
      "name": "approveAndCall",
      "outputs": [
        {
          "internalType": "bool",
          "name": "",
          "type": "bool"
        }
      ],
      "stateMutability": "nonpayable",
      "type": "function"
    },
    {
      "inputs": [
        {
          "internalType": "address",
          "name": "spender",
          "type": "address"
        },
        {
          "internalType": "uint256",
          "name": "value",
          "type": "uint256"
        },
        {
          "internalType": "bytes",
          "name": "data",
          "type": "bytes"
        }
      ],
      "name": "approveAndCall",
      "outputs": [
        {
          "internalType": "bool",
          "name": "",
          "type": "bool"
        }
      ],
      "stateMutability": "nonpayable",
      "type": "function"
    },
    {
      "inputs": [
        {
          "internalType": "address",
          "name": "account",
          "type": "address"
        }
      ],
      "name": "balanceOf",
      "outputs": [
        {
          "internalType": "uint256",
          "name": "",
          "type": "uint256"
        }
      ],
      "stateMutability": "view",
      "type": "function"
    },
    {
      "inputs": [
        {
          "internalType": "uint256",
          "name": "value",
          "type": "uint256"
        }
      ],
      "name": "burn",
      "outputs": [],
      "stateMutability": "nonpayable",
      "type": "function"
    },
    {
      "inputs": [
        {
          "internalType": "address",
          "name": "account",
          "type": "address"
        },
        {
          "internalType": "uint256",
          "name": "value",
          "type": "uint256"
        }
      ],
      "name": "burnFrom",
      "outputs": [],
      "stateMutability": "nonpayable",
      "type": "function"
    },
    {
      "inputs": [],
      "name": "decimals",
      "outputs": [
        {
          "internalType": "uint8",
          "name": "",
          "type": "uint8"
        }
      ],
      "stateMutability": "view",
      "type": "function"
    },
    {
      "inputs": [],
      "name": "eip712Domain",
      "outputs": [
        {
          "internalType": "bytes1",
          "name": "fields",
          "type": "bytes1"
        },
        {
          "internalType": "string",
          "name": "name",
          "type": "string"
        },
        {
          "internalType": "string",
          "name": "version",
          "type": "string"
        },
        {
          "internalType": "uint256",
          "name": "chainId",
          "type": "uint256"
        },
        {
          "internalType": "address",
          "name": "verifyingContract",
          "type": "address"
        },
        {
          "internalType": "bytes32",
          "name": "salt",
          "type": "bytes32"
        },
        {
          "internalType": "uint256[]",
          "name": "extensions",
          "type": "uint256[]"
        }
      ],
      "stateMutability": "view",
      "type": "function"
    },
    {
      "inputs": [
        {
          "internalType": "address",
          "name": "token",
          "type": "address"
        },
        {
          "internalType": "uint256",
          "name": "value",
          "type": "uint256"
        }
      ],
      "name": "flashFee",
      "outputs": [
        {
          "internalType": "uint256",
          "name": "",
          "type": "uint256"
        }
      ],
      "stateMutability": "view",
      "type": "function"
    },
    {
      "inputs": [
        {
          "internalType": "contract IERC3156FlashBorrower",
          "name": "receiver",
          "type": "address"
        },
        {
          "internalType": "address",
          "name": "token",
          "type": "address"
        },
        {
          "internalType": "uint256",
          "name": "value",
          "type": "uint256"
        },
        {
          "internalType": "bytes",
          "name": "data",
          "type": "bytes"
        }
      ],
      "name": "flashLoan",
      "outputs": [
        {
          "internalType": "bool",
          "name": "",
          "type": "bool"
        }
      ],
      "stateMutability": "nonpayable",
      "type": "function"
    },
    {
      "inputs": [
        {
          "internalType": "address",
          "name": "token",
          "type": "address"
        }
      ],
      "name": "maxFlashLoan",
      "outputs": [
        {
          "internalType": "uint256",
          "name": "",
          "type": "uint256"
        }
      ],
      "stateMutability": "view",
      "type": "function"
    },
    {
      "inputs": [
        {
          "internalType": "address",
          "name": "to",
          "type": "address"
        },
        {
          "internalType": "uint256",
          "name": "amount",
          "type": "uint256"
        }
      ],
      "name": "mint",
      "outputs": [],
      "stateMutability": "nonpayable",
      "type": "function"
    },
    {
      "inputs": [],
      "name": "name",
      "outputs": [
        {
          "internalType": "string",
          "name": "",
          "type": "string"
        }
      ],
      "stateMutability": "view",
      "type": "function"
    },
    {
      "inputs": [
        {
          "internalType": "address",
          "name": "owner",
          "type": "address"
        }
      ],
      "name": "nonces",
      "outputs": [
        {
          "internalType": "uint256",
          "name": "",
          "type": "uint256"
        }
      ],
      "stateMutability": "view",
      "type": "function"
    },
    {
      "inputs": [],
      "name": "owner",
      "outputs": [
        {
          "internalType": "address",
          "name": "",
          "type": "address"
        }
      ],
      "stateMutability": "view",
      "type": "function"
    },
    {
      "inputs": [],
      "name": "pause",
      "outputs": [],
      "stateMutability": "nonpayable",
      "type": "function"
    },
    {
      "inputs": [],
      "name": "paused",
      "outputs": [
        {
          "internalType": "bool",
          "name": "",
          "type": "bool"
        }
      ],
      "stateMutability": "view",
      "type": "function"
    },
    {
      "inputs": [
        {
          "internalType": "address",
          "name": "owner",
          "type": "address"
        },
        {
          "internalType": "address",
          "name": "spender",
          "type": "address"
        },
        {
          "internalType": "uint256",
          "name": "value",
          "type": "uint256"
        },
        {
          "internalType": "uint256",
          "name": "deadline",
          "type": "uint256"
        },
        {
          "internalType": "uint8",
          "name": "v",
          "type": "uint8"
        },
        {
          "internalType": "bytes32",
          "name": "r",
          "type": "bytes32"
        },
        {
          "internalType": "bytes32",
          "name": "s",
          "type": "bytes32"
        }
      ],
      "name": "permit",
      "outputs": [],
      "stateMutability": "nonpayable",
      "type": "function"
    },
    {
      "inputs": [],
      "name": "renounceOwnership",
      "outputs": [],
      "stateMutability": "nonpayable",
      "type": "function"
    },
    {
      "inputs": [
        {
          "internalType": "bytes4",
          "name": "interfaceId",
          "type": "bytes4"
        }
      ],
      "name": "supportsInterface",
      "outputs": [
        {
          "internalType": "bool",
          "name": "",
          "type": "bool"
        }
      ],
      "stateMutability": "view",
      "type": "function"
    },
    {
      "inputs": [],
      "name": "symbol",
      "outputs": [
        {
          "internalType": "string",
          "name": "",
          "type": "string"
        }
      ],
      "stateMutability": "view",
      "type": "function"
    },
    {
      "inputs": [],
      "name": "totalSupply",
      "outputs": [
        {
          "internalType": "uint256",
          "name": "",
          "type": "uint256"
        }
      ],
      "stateMutability": "view",
      "type": "function"
    },
    {
      "inputs": [
        {
          "internalType": "address",
          "name": "to",
          "type": "address"
        },
        {
          "internalType": "uint256",
          "name": "value",
          "type": "uint256"
        }
      ],
      "name": "transfer",
      "outputs": [
        {
          "internalType": "bool",
          "name": "",
          "type": "bool"
        }
      ],
      "stateMutability": "nonpayable",
      "type": "function"
    },
    {
      "inputs": [
        {
          "internalType": "address",
          "name": "to",
          "type": "address"
        },
        {
          "internalType": "uint256",
          "name": "value",
          "type": "uint256"
        }
      ],
      "name": "transferAndCall",
      "outputs": [
        {
          "internalType": "bool",
          "name": "",
          "type": "bool"
        }
      ],
      "stateMutability": "nonpayable",
      "type": "function"
    },
    {
      "inputs": [
        {
          "internalType": "address",
          "name": "to",
          "type": "address"
        },
        {
          "internalType": "uint256",
          "name": "value",
          "type": "uint256"
        },
        {
          "internalType": "bytes",
          "name": "data",
          "type": "bytes"
        }
      ],
      "name": "transferAndCall",
      "outputs": [
        {
          "internalType": "bool",
          "name": "",
          "type": "bool"
        }
      ],
      "stateMutability": "nonpayable",
      "type": "function"
    },
    {
      "inputs": [
        {
          "internalType": "address",
          "name": "from",
          "type": "address"
        },
        {
          "internalType": "address",
          "name": "to",
          "type": "address"
        },
        {
          "internalType": "uint256",
          "name": "value",
          "type": "uint256"
        }
      ],
      "name": "transferFrom",
      "outputs": [
        {
          "internalType": "bool",
          "name": "",
          "type": "bool"
        }
      ],
      "stateMutability": "nonpayable",
      "type": "function"
    },
    {
      "inputs": [
        {
          "internalType": "address",
          "name": "from",
          "type": "address"
        },
        {
          "internalType": "address",
          "name": "to",
          "type": "address"
        },
        {
          "internalType": "uint256",
          "name": "value",
          "type": "uint256"
        },
        {
          "internalType": "bytes",
          "name": "data",
          "type": "bytes"
        }
      ],
      "name": "transferFromAndCall",
      "outputs": [
        {
          "internalType": "bool",
          "name": "",
          "type": "bool"
        }
      ],
      "stateMutability": "nonpayable",
      "type": "function"
    },
    {
      "inputs": [
        {
          "internalType": "address",
          "name": "from",
          "type": "address"
        },
        {
          "internalType": "address",
          "name": "to",
          "type": "address"
        },
        {
          "internalType": "uint256",
          "name": "value",
          "type": "uint256"
        }
      ],
      "name": "transferFromAndCall",
      "outputs": [
        {
          "internalType": "bool",
          "name": "",
          "type": "bool"
        }
      ],
      "stateMutability": "nonpayable",
      "type": "function"
    },
    {
      "inputs": [
        {
          "internalType": "address",
          "name": "newOwner",
          "type": "address"
        }
      ],
      "name": "transferOwnership",
      "outputs": [],
      "stateMutability": "nonpayable",
      "type": "function"
    },
    {
      "inputs": [],
      "name": "unpause",
      "outputs": [],
      "stateMutability": "nonpayable",
      "type": "function"
    }
  ],
  "bytecode": "0x6101606040523480156200001257600080fd5b5060405162003f9838038062003f988339818101604052810190620000389190620004d3565b6040518060400160405280601381526020017f436172626f6e2043726564697420546f6b656e00000000000000000000000000815250806040518060400160405280600181526020017f3100000000000000000000000000000000000000000000000000000000000000815250836040518060400160405280601381526020017f436172626f6e2043726564697420546f6b656e000000000000000000000000008152506040518060400160405280600381526020017f434354000000000000000000000000000000000000000000000000000000000081525081600390816200012391906200077f565b5080600490816200013591906200077f565b505050600073ffffffffffffffffffffffffffffffffffffffff168173ffffffffffffffffffffffffffffffffffffffff1603620001ad5760006040517f1e4fbdf7000000000000000000000000000000000000000000000000000000008152600401620001a4919062000877565b60405180910390fd5b620001be816200027760201b60201c565b50620001d56006836200033d60201b90919060201c565b6101208181525050620001f36007826200033d60201b90919060201c565b6101408181525050818051906020012060e08181525050808051906020012061010081815250504660a08181525050620002326200039560201b60201c565b608081815250503073ffffffffffffffffffffffffffffffffffffffff1660c08173ffffffffffffffffffffffffffffffffffffffff16815250505050505062000a72565b6000600560019054906101000a900473ffffffffffffffffffffffffffffffffffffffff16905081600560016101000a81548173ffffffffffffffffffffffffffffffffffffffff021916908373ffffffffffffffffffffffffffffffffffffffff1602179055508173ffffffffffffffffffffffffffffffffffffffff168173ffffffffffffffffffffffffffffffffffffffff167f8be0079c531659141344cd1fd0a4f28419497f9722a3daafe3b4186f6b6457e060405160405180910390a35050565b600060208351101562000363576200035b83620003f260201b60201c565b90506200038f565b8262000375836200045f60201b60201c565b60000190816200038691906200077f565b5060ff60001b90505b92915050565b60007f8b73c3c69bb8fe3d512ecc4cf759cc79239f7b179b0ffacaa9a75d522b39400f60e051610100514630604051602001620003d7959493929190620008c0565b60405160208183030381529060405280519060200120905090565b600080829050601f815111156200044257826040517f305a27a9000000000000000000000000000000000000000000000000000000008152600401620004399190620009ac565b60405180910390fd5b805181620004509062000a02565b60001c1760001b915050919050565b6000819050919050565b600080fd5b600073ffffffffffffffffffffffffffffffffffffffff82169050919050565b60006200049b826200046e565b9050919050565b620004ad816200048e565b8114620004b957600080fd5b50565b600081519050620004cd81620004a2565b92915050565b600060208284031215620004ec57620004eb62000469565b5b6000620004fc84828501620004bc565b91505092915050565b600081519050919050565b7f4e487b7100000000000000000000000000000000000000000000000000000000600052604160045260246000fd5b7f4e487b7100000000000000000000000000000000000000000000000000000000600052602260045260246000fd5b600060028204905060018216806200058757607f821691505b6020821081036200059d576200059c6200053f565b5b50919050565b60008190508160005260206000209050919050565b60006020601f8301049050919050565b600082821b905092915050565b600060088302620006077fffffffffffffffffffffffffffffffffffffffffffffffffffffffffffffffff82620005c8565b620006138683620005c8565b95508019841693508086168417925050509392505050565b6000819050919050565b6000819050919050565b6000620006606200065a62000654846200062b565b62000635565b6200062b565b9050919050565b6000819050919050565b6200067c836200063f565b620006946200068b8262000667565b848454620005d5565b825550505050565b600090565b620006ab6200069c565b620006b881848462000671565b505050565b5b81811015620006e057620006d4600082620006a1565b600181019050620006be565b5050565b601f8211156200072f57620006f981620005a3565b6200070484620005b8565b8101602085101562000714578190505b6200072c6200072385620005b8565b830182620006bd565b50505b505050565b600082821c905092915050565b6000620007546000198460080262000734565b1980831691505092915050565b60006200076f838362000741565b9150826002028217905092915050565b6200078a8262000505565b67ffffffffffffffff811115620007a657620007a562000510565b5b620007b282546200056e565b620007bf828285620006e4565b600060209050601f831160018114620007f75760008415620007e2578287015190505b620007ee858262000761565b8655506200085e565b601f1984166200080786620005a3565b60005b8281101562000831578489015182556001820191506020850194506020810190506200080a565b868310156200085157848901516200084d601f89168262000741565b8355505b6001600288020188555050505b505050505050565b62000871816200048e565b82525050565b60006020820190506200088e600083018462000866565b92915050565b6000819050919050565b620008a98162000894565b82525050565b620008ba816200062b565b82525050565b600060a082019050620008d760008301886200089e565b620008e660208301876200089e565b620008f560408301866200089e565b620009046060830185620008af565b62000913608083018462000866565b9695505050505050565b600082825260208201905092915050565b60005b838110156200094e57808201518184015260208101905062000931565b60008484015250505050565b6000601f19601f8301169050919050565b6000620009788262000505565b6200098481856200091d565b9350620009968185602086016200092e565b620009a1816200095a565b840191505092915050565b60006020820190508181036000830152620009c881846200096b565b905092915050565b600081519050919050565b6000819050602082019050919050565b6000620009f9825162000894565b80915050919050565b600062000a0f82620009d0565b8262000a1b84620009db565b905062000a2881620009eb565b9250602082101562000a6b5762000a667fffffffffffffffffffffffffffffffffffffffffffffffffffffffffffffffff83602003600802620005c8565b831692505b5050919050565b60805160a05160c05160e0516101005161012051610140516134cb62000acd60003960006119f9015260006119be01526000611eea01526000611ec9015260006113b1015260006114070152600061143001526134cb6000f3fe608060405234801561001057600080fd5b50600436106101f05760003560e01c806370a082311161010f578063a9059cbb116100a2578063d8fbe99411610071578063d8fbe994146105e9578063d9d98ce414610619578063dd62ed3e14610649578063f2fde38b14610679576101f0565b8063a9059cbb1461053d578063c1d34b891461056d578063cae9ca511461059d578063d505accf146105cd576101f0565b80638456cb59116100de5780638456cb59146104d357806384b0196e146104dd5780638da5cb5b1461050157806395d89b411461051f576101f0565b806370a082311461044d578063715018a61461047d57806379cc6790146104875780637ecebe00146104a3576101f0565b80633644e5151161018757806342966c681161015657806342966c68146103b35780635c975abb146103cf5780635cffe9de146103ed578063613255ab1461041d576101f0565b80633644e5151461033f5780633f4ba83a1461035d5780634000aea01461036757806340c10f1914610397576101f0565b806318160ddd116101c357806318160ddd146102a357806323b872dd146102c1578063313ce567146102f15780633177029f1461030f576101f0565b806301ffc9a7146101f557806306fdde0314610225578063095ea7b3146102435780631296ee6214610273575b600080fd5b61020f600480360381019061020a9190612671565b610695565b60405161021c91906126b9565b60405180910390f35b61022d61070f565b60405161023a9190612764565b60405180910390f35b61025d6004803603810190610258919061281a565b6107a1565b60405161026a91906126b9565b60405180910390f35b61028d6004803603810190610288919061281a565b6107c4565b60405161029a91906126b9565b60405180910390f35b6102ab6107e8565b6040516102b89190612869565b60405180910390f35b6102db60048036038101906102d69190612884565b6107f2565b6040516102e891906126b9565b60405180910390f35b6102f9610821565b60405161030691906128f3565b60405180910390f35b6103296004803603810190610324919061281a565b61082a565b60405161033691906126b9565b60405180910390f35b61034761084e565b6040516103549190612927565b60405180910390f35b61036561085d565b005b610381600480360381019061037c9190612a77565b61086f565b60405161038e91906126b9565b60405180910390f35b6103b160048036038101906103ac919061281a565b6108e4565b005b6103cd60048036038101906103c89190612ae6565b6108fa565b005b6103d761090e565b6040516103e491906126b9565b60405180910390f35b61040760048036038101906104029190612bb1565b610925565b60405161041491906126b9565b60405180910390f35b61043760048036038101906104329190612c39565b610b22565b6040516104449190612869565b60405180910390f35b61046760048036038101906104629190612c39565b610b99565b6040516104749190612869565b60405180910390f35b610485610be1565b005b6104a1600480360381019061049c919061281a565b610bf5565b005b6104bd60048036038101906104b89190612c39565b610c15565b6040516104ca9190612869565b60405180910390f35b6104db610c27565b005b6104e5610c39565b6040516104f89796959493929190612d6e565b60405180910390f35b610509610ce3565b6040516105169190612df2565b60405180910390f35b610527610d0d565b6040516105349190612764565b60405180910390f35b6105576004803603810190610552919061281a565b610d9f565b60405161056491906126b9565b60405180910390f35b61058760048036038101906105829190612e0d565b610dc2565b60405161059491906126b9565b60405180910390f35b6105b760048036038101906105b29190612a77565b610e34565b6040516105c491906126b9565b60405180910390f35b6105e760048036038101906105e29190612ee8565b610ea1565b005b61060360048036038101906105fe9190612884565b610fe9565b60405161061091906126b9565b60405180910390f35b610633600480360381019061062e919061281a565b61100f565b6040516106409190612869565b60405180910390f35b610663600480360381019061065e9190612f8a565b611093565b6040516106709190612869565b60405180910390f35b610693600480360381019061068e9190612c39565b61111a565b005b60007fb0202a11000000000000000000000000000000000000000000000000000000007bffffffffffffffffffffffffffffffffffffffffffffffffffffffff1916827bffffffffffffffffffffffffffffffffffffffffffffffffffffffff191614806107085750610707826111a0565b5b9050919050565b60606003805461071e90612ff9565b80601f016020809104026020016040519081016040528092919081815260200182805461074a90612ff9565b80156107975780601f1061076c57610100808354040283529160200191610797565b820191906000526020600020905b81548152906001019060200180831161077a57829003601f168201915b5050505050905090565b6000806107ac61120a565b90506107b9818585611212565b600191505092915050565b60006107e083836040518060200160405280600081525061086f565b905092915050565b6000600254905090565b6000806107fd61120a565b905061080a858285611224565b6108158585856112b9565b60019150509392505050565b60006012905090565b6000610846838360405180602001604052806000815250610e34565b905092915050565b60006108586113ad565b905090565b610865611464565b61086d6114eb565b565b600061087b8484610d9f565b6108be5783836040517f231b03ae0000000000000000000000000000000000000000000000000000000081526004016108b592919061302a565b60405180910390fd5b6108d96108c961120a565b6108d161120a565b86868661154e565b600190509392505050565b6108ec611464565b6108f6828261173a565b5050565b61090b61090561120a565b826117bc565b50565b6000600560009054906101000a900460ff16905090565b60008061093186610b22565b90508085111561097857806040517ffd9a760900000000000000000000000000000000000000000000000000000000815260040161096f9190612869565b60405180910390fd5b6000610984878761100f565b9050610990888761173a565b7f439148f0bbc682ca079e46d6e2c2f0c1e3b820f1a291b069d8882abf8cf18dd98873ffffffffffffffffffffffffffffffffffffffff166323e30c8b6109d561120a565b8a8a868b8b6040518763ffffffff1660e01b81526004016109fb96959493929190613091565b6020604051808303816000875af1158015610a1a573d6000803e3d6000fd5b505050506040513d601f19601f82011682018060405250810190610a3e9190613102565b14610a8057876040517f678c5b00000000000000000000000000000000000000000000000000000000008152600401610a779190612df2565b60405180910390fd5b6000610a8a61183e565b9050610aa28930848a610a9d919061315e565b611224565b6000821480610add5750600073ffffffffffffffffffffffffffffffffffffffff168173ffffffffffffffffffffffffffffffffffffffff16145b15610afc57610af7898389610af2919061315e565b6117bc565b610b12565b610b0689886117bc565b610b118982846112b9565b5b6001935050505095945050505050565b60003073ffffffffffffffffffffffffffffffffffffffff168273ffffffffffffffffffffffffffffffffffffffff1614610b5e576000610b92565b610b666107e8565b7fffffffffffffffffffffffffffffffffffffffffffffffffffffffffffffffff610b919190613192565b5b9050919050565b60008060008373ffffffffffffffffffffffffffffffffffffffff1673ffffffffffffffffffffffffffffffffffffffff168152602001908152602001600020549050919050565b610be9611464565b610bf36000611843565b565b610c0782610c0161120a565b83611224565b610c1182826117bc565b5050565b6000610c2082611909565b9050919050565b610c2f611464565b610c37611952565b565b600060608060008060006060610c4d6119b5565b610c556119f0565b46306000801b600067ffffffffffffffff811115610c7657610c7561294c565b5b604051908082528060200260200182016040528015610ca45781602001602082028036833780820191505090505b507f0f00000000000000000000000000000000000000000000000000000000000000959493929190965096509650965096509650965090919293949596565b6000600560019054906101000a900473ffffffffffffffffffffffffffffffffffffffff16905090565b606060048054610d1c90612ff9565b80601f0160208091040260200160405190810160405280929190818152602001828054610d4890612ff9565b8015610d955780601f10610d6a57610100808354040283529160200191610d95565b820191906000526020600020905b815481529060010190602001808311610d7857829003601f168201915b5050505050905090565b600080610daa61120a565b9050610db78185856112b9565b600191505092915050565b6000610dcf8585856107f2565b610e14578484846040517fb56855e6000000000000000000000000000000000000000000000000000000008152600401610e0b939291906131c6565b60405180910390fd5b610e28610e1f61120a565b8686868661154e565b60019050949350505050565b6000610e4084846107a1565b610e835783836040517f50e555c4000000000000000000000000000000000000000000000000000000008152600401610e7a92919061302a565b60405180910390fd5b610e96610e8e61120a565b858585611a2b565b600190509392505050565b83421115610ee657836040517f62791302000000000000000000000000000000000000000000000000000000008152600401610edd9190612869565b60405180910390fd5b60007f6e71edae12b1b97f4d1f60370fef10105fa2faae0126114a169c64845d6126c9888888610f158c611c14565b89604051602001610f2b969594939291906131fd565b6040516020818303038152906040528051906020012090506000610f4e82611c6b565b90506000610f5e82878787611c85565b90508973ffffffffffffffffffffffffffffffffffffffff168173ffffffffffffffffffffffffffffffffffffffff1614610fd257808a6040517f4b800e46000000000000000000000000000000000000000000000000000000008152600401610fc992919061325e565b60405180910390fd5b610fdd8a8a8a611212565b50505050505050505050565b600061100684848460405180602001604052806000815250610dc2565b90509392505050565b60003073ffffffffffffffffffffffffffffffffffffffff168373ffffffffffffffffffffffffffffffffffffffff161461108157826040517fb5a7db920000000000000000000000000000000000000000000000000000000081526004016110789190612df2565b60405180910390fd5b61108b8383611cb5565b905092915050565b6000600160008473ffffffffffffffffffffffffffffffffffffffff1673ffffffffffffffffffffffffffffffffffffffff16815260200190815260200160002060008373ffffffffffffffffffffffffffffffffffffffff1673ffffffffffffffffffffffffffffffffffffffff16815260200190815260200160002054905092915050565b611122611464565b600073ffffffffffffffffffffffffffffffffffffffff168173ffffffffffffffffffffffffffffffffffffffff16036111945760006040517f1e4fbdf700000000000000000000000000000000000000000000000000000000815260040161118b9190612df2565b60405180910390fd5b61119d81611843565b50565b60007f01ffc9a7000000000000000000000000000000000000000000000000000000007bffffffffffffffffffffffffffffffffffffffffffffffffffffffff1916827bffffffffffffffffffffffffffffffffffffffffffffffffffffffff1916149050919050565b600033905090565b61121f8383836001611cbd565b505050565b60006112308484611093565b90507fffffffffffffffffffffffffffffffffffffffffffffffffffffffffffffffff8110156112b357818110156112a3578281836040517ffb8f41b200000000000000000000000000000000000000000000000000000000815260040161129a93929190613287565b60405180910390fd5b6112b284848484036000611cbd565b5b50505050565b600073ffffffffffffffffffffffffffffffffffffffff168373ffffffffffffffffffffffffffffffffffffffff160361132b5760006040517f96c6fd1e0000000000000000000000000000000000000000000000000000000081526004016113229190612df2565b60405180910390fd5b600073ffffffffffffffffffffffffffffffffffffffff168273ffffffffffffffffffffffffffffffffffffffff160361139d5760006040517fec442f050000000000000000000000000000000000000000000000000000000081526004016113949190612df2565b60405180910390fd5b6113a8838383611e94565b505050565b60007f000000000000000000000000000000000000000000000000000000000000000073ffffffffffffffffffffffffffffffffffffffff163073ffffffffffffffffffffffffffffffffffffffff1614801561142957507f000000000000000000000000000000000000000000000000000000000000000046145b15611456577f00000000000000000000000000000000000000000000000000000000000000009050611461565b61145e611ea4565b90505b90565b61146c61120a565b73ffffffffffffffffffffffffffffffffffffffff1661148a610ce3565b73ffffffffffffffffffffffffffffffffffffffff16146114e9576114ad61120a565b6040517f118cdaa70000000000000000000000000000000000000000000000000000000081526004016114e09190612df2565b60405180910390fd5b565b6114f3611f3a565b6000600560006101000a81548160ff0219169083151502179055507f5db9ee0a495bf2e6ff9c91a7834c1ba4fdd244a5e8aa4e537bd38aeae4b073aa61153761120a565b6040516115449190612df2565b60405180910390a1565b60008373ffffffffffffffffffffffffffffffffffffffff163b036115aa57826040517f8a96cd9c0000000000000000000000000000000000000000000000000000000081526004016115a19190612df2565b60405180910390fd5b8273ffffffffffffffffffffffffffffffffffffffff166388a7ca5c868685856040518563ffffffff1660e01b81526004016115e99493929190613302565b6020604051808303816000875af192505050801561162557506040513d601f19601f820116820180604052508101906116229190613363565b60015b6116a9573d8060008114611655576040519150601f19603f3d011682016040523d82523d6000602084013e61165a565b606091505b5060008151036116a157836040517f8a96cd9c0000000000000000000000000000000000000000000000000000000081526004016116989190612df2565b60405180910390fd5b805181602001fd5b6388a7ca5c60e01b7bffffffffffffffffffffffffffffffffffffffffffffffffffffffff1916817bffffffffffffffffffffffffffffffffffffffffffffffffffffffff19161461173257836040517f8a96cd9c0000000000000000000000000000000000000000000000000000000081526004016117299190612df2565b60405180910390fd5b505050505050565b600073ffffffffffffffffffffffffffffffffffffffff168273ffffffffffffffffffffffffffffffffffffffff16036117ac5760006040517fec442f050000000000000000000000000000000000000000000000000000000081526004016117a39190612df2565b60405180910390fd5b6117b860008383611e94565b5050565b600073ffffffffffffffffffffffffffffffffffffffff168273ffffffffffffffffffffffffffffffffffffffff160361182e5760006040517f96c6fd1e0000000000000000000000000000000000000000000000000000000081526004016118259190612df2565b60405180910390fd5b61183a82600083611e94565b5050565b600090565b6000600560019054906101000a900473ffffffffffffffffffffffffffffffffffffffff16905081600560016101000a81548173ffffffffffffffffffffffffffffffffffffffff021916908373ffffffffffffffffffffffffffffffffffffffff1602179055508173ffffffffffffffffffffffffffffffffffffffff168173ffffffffffffffffffffffffffffffffffffffff167f8be0079c531659141344cd1fd0a4f28419497f9722a3daafe3b4186f6b6457e060405160405180910390a35050565b6000600860008373ffffffffffffffffffffffffffffffffffffffff1673ffffffffffffffffffffffffffffffffffffffff168152602001908152602001600020549050919050565b61195a611f7a565b6001600560006101000a81548160ff0219169083151502179055507f62e78cea01bee320cd4e420270b5ea74000d11b0c9f74754ebdbfc544b05a25861199e61120a565b6040516119ab9190612df2565b60405180910390a1565b60606119eb60067f0000000000000000000000000000000000000000000000000000000000000000611fbb90919063ffffffff16565b905090565b6060611a2660077f0000000000000000000000000000000000000000000000000000000000000000611fbb90919063ffffffff16565b905090565b60008373ffffffffffffffffffffffffffffffffffffffff163b03611a8757826040517fdeb6d3ed000000000000000000000000000000000000000000000000000000008152600401611a7e9190612df2565b60405180910390fd5b8273ffffffffffffffffffffffffffffffffffffffff16637b04a2d08584846040518463ffffffff1660e01b8152600401611ac493929190613390565b6020604051808303816000875af1925050508015611b0057506040513d601f19601f82011682018060405250810190611afd9190613363565b60015b611b84573d8060008114611b30576040519150601f19603f3d011682016040523d82523d6000602084013e611b35565b606091505b506000815103611b7c57836040517fdeb6d3ed000000000000000000000000000000000000000000000000000000008152600401611b739190612df2565b60405180910390fd5b805181602001fd5b637b04a2d060e01b7bffffffffffffffffffffffffffffffffffffffffffffffffffffffff1916817bffffffffffffffffffffffffffffffffffffffffffffffffffffffff191614611c0d57836040517fdeb6d3ed000000000000000000000000000000000000000000000000000000008152600401611c049190612df2565b60405180910390fd5b5050505050565b6000600860008373ffffffffffffffffffffffffffffffffffffffff1673ffffffffffffffffffffffffffffffffffffffff1681526020019081526020016000206000815480929190600101919050559050919050565b6000611c7e611c786113ad565b8361206b565b9050919050565b600080600080611c97888888886120ac565b925092509250611ca782826121a0565b829350505050949350505050565b600092915050565b600073ffffffffffffffffffffffffffffffffffffffff168473ffffffffffffffffffffffffffffffffffffffff1603611d2f5760006040517fe602df05000000000000000000000000000000000000000000000000000000008152600401611d269190612df2565b60405180910390fd5b600073ffffffffffffffffffffffffffffffffffffffff168373ffffffffffffffffffffffffffffffffffffffff1603611da15760006040517f94280d62000000000000000000000000000000000000000000000000000000008152600401611d989190612df2565b60405180910390fd5b81600160008673ffffffffffffffffffffffffffffffffffffffff1673ffffffffffffffffffffffffffffffffffffffff16815260200190815260200160002060008573ffffffffffffffffffffffffffffffffffffffff1673ffffffffffffffffffffffffffffffffffffffff168152602001908152602001600020819055508015611e8e578273ffffffffffffffffffffffffffffffffffffffff168473ffffffffffffffffffffffffffffffffffffffff167f8c5be1e5ebec7d5bd14f71427d1e84f3dd0314c0f7b2291e5b200ac8c7c3b92584604051611e859190612869565b60405180910390a35b50505050565b611e9f838383612304565b505050565b60007f8b73c3c69bb8fe3d512ecc4cf759cc79239f7b179b0ffacaa9a75d522b39400f7f00000000000000000000000000000000000000000000000000000000000000007f00000000000000000000000000000000000000000000000000000000000000004630604051602001611f1f9594939291906133ce565b60405160208183030381529060405280519060200120905090565b611f4261090e565b611f78576040517f8dfc202b00000000000000000000000000000000000000000000000000000000815260040160405180910390fd5b565b611f8261090e565b15611fb9576040517fd93c066500000000000000000000000000000000000000000000000000000000815260040160405180910390fd5b565b606060ff60001b8314611fd857611fd18361231c565b9050612065565b818054611fe490612ff9565b80601f016020809104026020016040519081016040528092919081815260200182805461201090612ff9565b801561205d5780601f106120325761010080835404028352916020019161205d565b820191906000526020600020905b81548152906001019060200180831161204057829003601f168201915b505050505090505b92915050565b60006040517f190100000000000000000000000000000000000000000000000000000000000081528360028201528260228201526042812091505092915050565b60008060007f7fffffffffffffffffffffffffffffff5d576e7357a4501ddfe92f46681b20a08460001c11156120ec576000600385925092509250612196565b6000600188888888604051600081526020016040526040516121119493929190613421565b6020604051602081039080840390855afa158015612133573d6000803e3d6000fd5b505050602060405103519050600073ffffffffffffffffffffffffffffffffffffffff168173ffffffffffffffffffffffffffffffffffffffff160361218757600060016000801b93509350935050612196565b8060008060001b935093509350505b9450945094915050565b600060038111156121b4576121b3613466565b5b8260038111156121c7576121c6613466565b5b031561230057600160038111156121e1576121e0613466565b5b8260038111156121f4576121f3613466565b5b0361222b576040517ff645eedf00000000000000000000000000000000000000000000000000000000815260040160405180910390fd5b6002600381111561223f5761223e613466565b5b82600381111561225257612251613466565b5b03612297578060001c6040517ffce698f700000000000000000000000000000000000000000000000000000000815260040161228e9190612869565b60405180910390fd5b6003808111156122aa576122a9613466565b5b8260038111156122bd576122bc613466565b5b036122ff57806040517fd78bce0c0000000000000000000000000000000000000000000000000000000081526004016122f69190612927565b60405180910390fd5b5b5050565b61230c611f7a565b612317838383612390565b505050565b60606000612329836125b5565b90506000602067ffffffffffffffff8111156123485761234761294c565b5b6040519080825280601f01601f19166020018201604052801561237a5781602001600182028036833780820191505090505b5090508181528360208201528092505050919050565b600073ffffffffffffffffffffffffffffffffffffffff168373ffffffffffffffffffffffffffffffffffffffff16036123e25780600260008282546123d6919061315e565b925050819055506124b5565b60008060008573ffffffffffffffffffffffffffffffffffffffff1673ffffffffffffffffffffffffffffffffffffffff1681526020019081526020016000205490508181101561246e578381836040517fe450d38c00000000000000000000000000000000000000000000000000000000815260040161246593929190613287565b60405180910390fd5b8181036000808673ffffffffffffffffffffffffffffffffffffffff1673ffffffffffffffffffffffffffffffffffffffff16815260200190815260200160002081905550505b600073ffffffffffffffffffffffffffffffffffffffff168273ffffffffffffffffffffffffffffffffffffffff16036124fe578060026000828254039250508190555061254b565b806000808473ffffffffffffffffffffffffffffffffffffffff1673ffffffffffffffffffffffffffffffffffffffff168152602001908152602001600020600082825401925050819055505b8173ffffffffffffffffffffffffffffffffffffffff168373ffffffffffffffffffffffffffffffffffffffff167fddf252ad1be2c89b69c2b068fc378daa952ba7f163c4a11628f55a4df523b3ef836040516125a89190612869565b60405180910390a3505050565b60008060ff8360001c169050601f8111156125fc576040517fb3512b0c00000000000000000000000000000000000000000000000000000000815260040160405180910390fd5b80915050919050565b6000604051905090565b600080fd5b600080fd5b60007fffffffff0000000000000000000000000000000000000000000000000000000082169050919050565b61264e81612619565b811461265957600080fd5b50565b60008135905061266b81612645565b92915050565b6000602082840312156126875761268661260f565b5b60006126958482850161265c565b91505092915050565b60008115159050919050565b6126b38161269e565b82525050565b60006020820190506126ce60008301846126aa565b92915050565b600081519050919050565b600082825260208201905092915050565b60005b8381101561270e5780820151818401526020810190506126f3565b60008484015250505050565b6000601f19601f8301169050919050565b6000612736826126d4565b61274081856126df565b93506127508185602086016126f0565b6127598161271a565b840191505092915050565b6000602082019050818103600083015261277e818461272b565b905092915050565b600073ffffffffffffffffffffffffffffffffffffffff82169050919050565b60006127b182612786565b9050919050565b6127c1816127a6565b81146127cc57600080fd5b50565b6000813590506127de816127b8565b92915050565b6000819050919050565b6127f7816127e4565b811461280257600080fd5b50565b600081359050612814816127ee565b92915050565b600080604083850312156128315761283061260f565b5b600061283f858286016127cf565b925050602061285085828601612805565b9150509250929050565b612863816127e4565b82525050565b600060208201905061287e600083018461285a565b92915050565b60008060006060848603121561289d5761289c61260f565b5b60006128ab868287016127cf565b93505060206128bc868287016127cf565b92505060406128cd86828701612805565b9150509250925092565b600060ff82169050919050565b6128ed816128d7565b82525050565b600060208201905061290860008301846128e4565b92915050565b6000819050919050565b6129218161290e565b82525050565b600060208201905061293c6000830184612918565b92915050565b600080fd5b600080fd5b7f4e487b7100000000000000000000000000000000000000000000000000000000600052604160045260246000fd5b6129848261271a565b810181811067ffffffffffffffff821117156129a3576129a261294c565b5b80604052505050565b60006129b6612605565b90506129c2828261297b565b919050565b600067ffffffffffffffff8211156129e2576129e161294c565b5b6129eb8261271a565b9050602081019050919050565b82818337600083830152505050565b6000612a1a612a15846129c7565b6129ac565b905082815260208101848484011115612a3657612a35612947565b5b612a418482856129f8565b509392505050565b600082601f830112612a5e57612a5d612942565b5b8135612a6e848260208601612a07565b91505092915050565b600080600060608486031215612a9057612a8f61260f565b5b6000612a9e868287016127cf565b9350506020612aaf86828701612805565b925050604084013567ffffffffffffffff811115612ad057612acf612614565b5b612adc86828701612a49565b9150509250925092565b600060208284031215612afc57612afb61260f565b5b6000612b0a84828501612805565b91505092915050565b6000612b1e826127a6565b9050919050565b612b2e81612b13565b8114612b3957600080fd5b50565b600081359050612b4b81612b25565b92915050565b600080fd5b600080fd5b60008083601f840112612b7157612b70612942565b5b8235905067ffffffffffffffff811115612b8e57612b8d612b51565b5b602083019150836001820283011115612baa57612ba9612b56565b5b9250929050565b600080600080600060808688031215612bcd57612bcc61260f565b5b6000612bdb88828901612b3c565b9550506020612bec888289016127cf565b9450506040612bfd88828901612805565b935050606086013567ffffffffffffffff811115612c1e57612c1d612614565b5b612c2a88828901612b5b565b92509250509295509295909350565b600060208284031215612c4f57612c4e61260f565b5b6000612c5d848285016127cf565b91505092915050565b60007fff0000000000000000000000000000000000000000000000000000000000000082169050919050565b612c9b81612c66565b82525050565b612caa816127a6565b82525050565b600081519050919050565b600082825260208201905092915050565b6000819050602082019050919050565b612ce5816127e4565b82525050565b6000612cf78383612cdc565b60208301905092915050565b6000602082019050919050565b6000612d1b82612cb0565b612d258185612cbb565b9350612d3083612ccc565b8060005b83811015612d61578151612d488882612ceb565b9750612d5383612d03565b925050600181019050612d34565b5085935050505092915050565b600060e082019050612d83600083018a612c92565b8181036020830152612d95818961272b565b90508181036040830152612da9818861272b565b9050612db8606083018761285a565b612dc56080830186612ca1565b612dd260a0830185612918565b81810360c0830152612de48184612d10565b905098975050505050505050565b6000602082019050612e076000830184612ca1565b92915050565b60008060008060808587031215612e2757612e2661260f565b5b6000612e35878288016127cf565b9450506020612e46878288016127cf565b9350506040612e5787828801612805565b925050606085013567ffffffffffffffff811115612e7857612e77612614565b5b612e8487828801612a49565b91505092959194509250565b612e99816128d7565b8114612ea457600080fd5b50565b600081359050612eb681612e90565b92915050565b612ec58161290e565b8114612ed057600080fd5b50565b600081359050612ee281612ebc565b92915050565b600080600080600080600060e0888a031215612f0757612f0661260f565b5b6000612f158a828b016127cf565b9750506020612f268a828b016127cf565b9650506040612f378a828b01612805565b9550506060612f488a828b01612805565b9450506080612f598a828b01612ea7565b93505060a0612f6a8a828b01612ed3565b92505060c0612f7b8a828b01612ed3565b91505092959891949750929550565b60008060408385031215612fa157612fa061260f565b5b6000612faf858286016127cf565b9250506020612fc0858286016127cf565b9150509250929050565b7f4e487b7100000000000000000000000000000000000000000000000000000000600052602260045260246000fd5b6000600282049050600182168061301157607f821691505b60208210810361302457613023612fca565b5b50919050565b600060408201905061303f6000830185612ca1565b61304c602083018461285a565b9392505050565b600082825260208201905092915050565b60006130708385613053565b935061307d8385846129f8565b6130868361271a565b840190509392505050565b600060a0820190506130a66000830189612ca1565b6130b36020830188612ca1565b6130c0604083018761285a565b6130cd606083018661285a565b81810360808301526130e0818486613064565b9050979650505050505050565b6000815190506130fc81612ebc565b92915050565b6000602082840312156131185761311761260f565b5b6000613126848285016130ed565b91505092915050565b7f4e487b7100000000000000000000000000000000000000000000000000000000600052601160045260246000fd5b6000613169826127e4565b9150613174836127e4565b925082820190508082111561318c5761318b61312f565b5b92915050565b600061319d826127e4565b91506131a8836127e4565b92508282039050818111156131c0576131bf61312f565b5b92915050565b60006060820190506131db6000830186612ca1565b6131e86020830185612ca1565b6131f5604083018461285a565b949350505050565b600060c0820190506132126000830189612918565b61321f6020830188612ca1565b61322c6040830187612ca1565b613239606083018661285a565b613246608083018561285a565b61325360a083018461285a565b979650505050505050565b60006040820190506132736000830185612ca1565b6132806020830184612ca1565b9392505050565b600060608201905061329c6000830186612ca1565b6132a9602083018561285a565b6132b6604083018461285a565b949350505050565b600081519050919050565b60006132d4826132be565b6132de8185613053565b93506132ee8185602086016126f0565b6132f78161271a565b840191505092915050565b60006080820190506133176000830187612ca1565b6133246020830186612ca1565b613331604083018561285a565b818103606083015261334381846132c9565b905095945050505050565b60008151905061335d81612645565b92915050565b6000602082840312156133795761337861260f565b5b60006133878482850161334e565b91505092915050565b60006060820190506133a56000830186612ca1565b6133b2602083018561285a565b81810360408301526133c481846132c9565b9050949350505050565b600060a0820190506133e36000830188612918565b6133f06020830187612918565b6133fd6040830186612918565b61340a606083018561285a565b6134176080830184612ca1565b9695505050505050565b60006080820190506134366000830187612918565b61344360208301866128e4565b6134506040830185612918565b61345d6060830184612918565b95945050505050565b7f4e487b7100000000000000000000000000000000000000000000000000000000600052602160045260246000fdfea26469706673582212203fd353f633655741a83c55e41da1cef5db2bb4fd0b5bd6e8f059a6aa802afd5f64736f6c63430008160033",
  "linkReferences": {},
  "deployedLinkReferences": {}
}