{
  "_format": "hh-sol-artifact-1",
  "contractName": "CarbonMarketplace",
  "sourceName": "contracts/CarbonMarketplace.sol",
  "abi": [
    {
      "inputs": [
        {
          "internalType": "address",
          "name": "initialOwner",
          "type": "address"
        },
        {
          "internalType": "address",
          "name": "_greenNFT",
          "type": "address"
        },
        {
          "internalType": "address",
          "name": "_cct",
          "type": "address"
        }
      ],
      "stateMutability": "nonpayable",
      "type": "constructor"
    },
    {
      "inputs": [
        {
          "internalType": "address",
          "name": "owner",
          "type": "address"
        }
      ],
      "name": "OwnableInvalidOwner",
      "type": "error"
    },
    {
      "inputs": [
        {
          "internalType": "address",
          "name": "account",
          "type": "address"
        }
      ],
      "name": "OwnableUnauthorizedAccount",
      "type": "error"
    },
    {
      "anonymous": false,
      "inputs": [
        {
          "indexed": true,
          "internalType": "uint256",
          "name": "projectId",
          "type": "uint256"
        },
        {
          "indexed": true,
          "internalType": "address",
          "name": "auditor",
          "type": "address"
        }
      ],
      "name": "Audited",
      "type": "event"
    },
    {
      "anonymous": false,
      "inputs": [
        {
          "indexed": true,
          "internalType": "uint256",
          "name": "projectId",
          "type": "uint256"
        },
        {
          "indexed": true,
          "internalType": "address",
          "name": "projectOwner",
          "type": "address"
        },
        {
          "indexed": false,
          "internalType": "uint256",
          "name": "amount",
          "type": "uint256"
        }
      ],
      "name": "Claimed",
      "type": "event"
    },
    {
      "anonymous": false,
      "inputs": [
        {
          "indexed": true,
          "internalType": "uint256",
          "name": "projectId",
          "type": "uint256"
        },
        {
          "indexed": false,
          "internalType": "uint256",
          "name": "price",
          "type": "uint256"
        }
      ],
      "name": "Listed",
      "type": "event"
    },
    {
      "anonymous": false,
      "inputs": [
        {
          "indexed": true,
          "internalType": "address",
          "name": "previousOwner",
          "type": "address"
        },
        {
          "indexed": true,
          "internalType": "address",
          "name": "newOwner",
          "type": "address"
        }
      ],
      "name": "OwnershipTransferred",
      "type": "event"
    },
    {
      "anonymous": false,
      "inputs": [
        {
          "indexed": true,
          "internalType": "uint256",
          "name": "projectId",
          "type": "uint256"
        },
        {
          "indexed": false,
          "internalType": "address",
          "name": "buyer",
          "type": "address"
        },
        {
          "indexed": false,
          "internalType": "uint256",
          "name": "amount",
          "type": "uint256"
        }
      ],
      "name": "Purchased",
      "type": "event"
    },
    {
      "inputs": [
        {
          "internalType": "uint256",
          "name": "projectId",
          "type": "uint256"
        },
        {
          "internalType": "string",
          "name": "uri",
          "type": "string"
        }
      ],
      "name": "auditClaim",
      "outputs": [],
      "stateMutability": "nonpayable",
      "type": "function"
    },
    {
      "inputs": [
        {
          "internalType": "address",
          "name": "",
          "type": "address"
        }
      ],
      "name": "auditors",
      "outputs": [
        {
          "internalType": "bool",
          "name": "",
          "type": "bool"
        }
      ],
      "stateMutability": "view",
      "type": "function"
    },
    {
      "inputs": [
        {
          "internalType": "uint256",
          "name": "projectId",
          "type": "uint256"
        }
      ],
      "name": "buyCCT",
      "outputs": [],
      "stateMutability": "payable",
      "type": "function"
    },
    {
      "inputs": [],
      "name": "cct",
      "outputs": [
        {
          "internalType": "contract CarbonCreditToken",
          "name": "",
          "type": "address"
        }
      ],
      "stateMutability": "view",
      "type": "function"
    },
    {
      "inputs": [
        {
          "internalType": "uint256",
          "name": "amount",
          "type": "uint256"
        }
      ],
      "name": "claimReduction",
      "outputs": [],
      "stateMutability": "nonpayable",
      "type": "function"
    },
    {
      "inputs": [],
      "name": "greenNFT",
      "outputs": [
        {
          "internalType": "contract GreenNFT",
          "name": "",
          "type": "address"
        }
      ],
      "stateMutability": "view",
      "type": "function"
    },
    {
      "inputs": [
        {
          "internalType": "uint256",
          "name": "projectId",
          "type": "uint256"
        },
        {
          "internalType": "uint256",
          "name": "price",
          "type": "uint256"
        }
      ],
      "name": "listForSale",
      "outputs": [],
      "stateMutability": "nonpayable",
      "type": "function"
    },
    {
      "inputs": [],
      "name": "nextProjectId",
      "outputs": [
        {
          "internalType": "uint256",
          "name": "",
          "type": "uint256"
        }
      ],
      "stateMutability": "view",
      "type": "function"
    },
    {
      "inputs": [],
      "name": "owner",
      "outputs": [
        {
          "internalType": "address",
          "name": "",
          "type": "address"
        }
      ],
      "stateMutability": "view",
      "type": "function"
    },
    {
      "inputs": [
        {
          "internalType": "uint256",
          "name": "",
          "type": "uint256"
        }
      ],
      "name": "projects",
      "outputs": [
        {
          "internalType": "address",
          "name": "owner",
          "type": "address"
        },
        {
          "internalType": "uint256",
          "name": "amount",
          "type": "uint256"
        },
        {
          "internalType": "bool",
          "name": "audited",
          "type": "bool"
        },
        {
          "internalType": "uint256",
          "name": "nftId",
          "type": "uint256"
        }
      ],
      "stateMutability": "view",
      "type": "function"
    },
    {
      "inputs": [
        {
          "internalType": "address",
          "name": "auditor",
          "type": "address"
        }
      ],
      "name": "registerAuditor",
      "outputs": [],
      "stateMutability": "nonpayable",
      "type": "function"
    },
    {
      "inputs": [],
      "name": "renounceOwnership",
      "outputs": [],
      "stateMutability": "nonpayable",
      "type": "function"
    },
    {
      "inputs": [
        {
          "internalType": "uint256",
          "name": "",
          "type": "uint256"
        }
      ],
      "name": "tokenPrices",
      "outputs": [
        {
          "internalType": "uint256",
          "name": "",
          "type": "uint256"
        }
      ],
      "stateMutability": "view",
      "type": "function"
    },
    {
      "inputs": [
        {
          "internalType": "address",
          "name": "newOwner",
          "type": "address"
        }
      ],
      "name": "transferOwnership",
      "outputs": [],
      "stateMutability": "nonpayable",
      "type": "function"
    }
  ],
  "bytecode": "0x60806040523480156200001157600080fd5b50604051620019fa380380620019fa833981810160405281019062000037919062000278565b82600073ffffffffffffffffffffffffffffffffffffffff168173ffffffffffffffffffffffffffffffffffffffff1603620000ad5760006040517f1e4fbdf7000000000000000000000000000000000000000000000000000000008152600401620000a49190620002e5565b60405180910390fd5b620000be816200014a60201b60201c565b5081600160006101000a81548173ffffffffffffffffffffffffffffffffffffffff021916908373ffffffffffffffffffffffffffffffffffffffff16021790555080600260006101000a81548173ffffffffffffffffffffffffffffffffffffffff021916908373ffffffffffffffffffffffffffffffffffffffff16021790555050505062000302565b60008060009054906101000a900473ffffffffffffffffffffffffffffffffffffffff169050816000806101000a81548173ffffffffffffffffffffffffffffffffffffffff021916908373ffffffffffffffffffffffffffffffffffffffff1602179055508173ffffffffffffffffffffffffffffffffffffffff168173ffffffffffffffffffffffffffffffffffffffff167f8be0079c531659141344cd1fd0a4f28419497f9722a3daafe3b4186f6b6457e060405160405180910390a35050565b600080fd5b600073ffffffffffffffffffffffffffffffffffffffff82169050919050565b6000620002408262000213565b9050919050565b620002528162000233565b81146200025e57600080fd5b50565b600081519050620002728162000247565b92915050565b6000806000606084860312156200029457620002936200020e565b5b6000620002a48682870162000261565b9350506020620002b78682870162000261565b9250506040620002ca8682870162000261565b9150509250925092565b620002df8162000233565b82525050565b6000602082019050620002fc6000830184620002d4565b92915050565b6116e880620003126000396000f3fe6080604052600436106100dd5760003560e01c8063915b72b21161007f578063e80d7fec11610059578063e80d7fec146102a0578063e935b7b1146102c9578063f2fde38b146102f4578063fffed7b21461031d576100dd565b8063915b72b21461021e578063df9a4f561461023a578063e5afe3e614610263576100dd565b80635a05ee58116100bb5780635a05ee5814610188578063715018a6146101b357806386071857146101ca5780638da5cb5b146101f3576100dd565b8063022a85b8146100e2578063107046bd1461010b57806347f9aa9f1461014b575b600080fd5b3480156100ee57600080fd5b5061010960048036038101906101049190610f9c565b610348565b005b34801561011757600080fd5b50610132600480360381019061012d9190610ff8565b61062c565b6040516101429493929190611090565b60405180910390f35b34801561015757600080fd5b50610172600480360381019061016d9190611101565b610689565b60405161017f919061112e565b60405180910390f35b34801561019457600080fd5b5061019d6106a9565b6040516101aa91906111a8565b60405180910390f35b3480156101bf57600080fd5b506101c86106cf565b005b3480156101d657600080fd5b506101f160048036038101906101ec9190610ff8565b6106e3565b005b3480156101ff57600080fd5b5061020861081d565b60405161021591906111c3565b60405180910390f35b61023860048036038101906102339190610ff8565b610846565b005b34801561024657600080fd5b50610261600480360381019061025c9190611101565b610a31565b005b34801561026f57600080fd5b5061028a60048036038101906102859190610ff8565b610a94565b60405161029791906111de565b60405180910390f35b3480156102ac57600080fd5b506102c760048036038101906102c291906111f9565b610aac565b005b3480156102d557600080fd5b506102de610c07565b6040516102eb91906111de565b60405180910390f35b34801561030057600080fd5b5061031b60048036038101906103169190611101565b610c0d565b005b34801561032957600080fd5b50610332610c93565b60405161033f919061125a565b60405180910390f35b600660003373ffffffffffffffffffffffffffffffffffffffff1673ffffffffffffffffffffffffffffffffffffffff16815260200190815260200160002060009054906101000a900460ff166103d4576040517f08c379a00000000000000000000000000000000000000000000000000000000081526004016103cb906112d2565b60405180910390fd5b60006003600084815260200190815260200160002090508060020160009054906101000a900460ff161561043d576040517f08c379a00000000000000000000000000000000000000000000000000000000081526004016104349061133e565b60405180910390fd5b6000600160009054906101000a900473ffffffffffffffffffffffffffffffffffffffff1673ffffffffffffffffffffffffffffffffffffffff1663d204c45e8360000160009054906101000a900473ffffffffffffffffffffffffffffffffffffffff16856040518363ffffffff1660e01b81526004016104c09291906113cc565b6020604051808303816000875af11580156104df573d6000803e3d6000fd5b505050506040513d601f19601f820116820180604052508101906105039190611411565b9050600260009054906101000a900473ffffffffffffffffffffffffffffffffffffffff1673ffffffffffffffffffffffffffffffffffffffff166340c10f198360000160009054906101000a900473ffffffffffffffffffffffffffffffffffffffff1684600101546040518363ffffffff1660e01b815260040161058a92919061143e565b600060405180830381600087803b1580156105a457600080fd5b505af11580156105b8573d6000803e3d6000fd5b5050505060018260020160006101000a81548160ff0219169083151502179055508082600301819055503373ffffffffffffffffffffffffffffffffffffffff16847fa4ce37117370d23c8e1963a926dd6685d86e1ad3439860aa69c6092f10b1b4be60405160405180910390a350505050565b60036020528060005260406000206000915090508060000160009054906101000a900473ffffffffffffffffffffffffffffffffffffffff16908060010154908060020160009054906101000a900460ff16908060030154905084565b60066020528060005260406000206000915054906101000a900460ff1681565b600260009054906101000a900473ffffffffffffffffffffffffffffffffffffffff1681565b6106d7610cb9565b6106e16000610d40565b565b60405180608001604052803373ffffffffffffffffffffffffffffffffffffffff168152602001828152602001600015158152602001600081525060036000600454815260200190815260200160002060008201518160000160006101000a81548173ffffffffffffffffffffffffffffffffffffffff021916908373ffffffffffffffffffffffffffffffffffffffff1602179055506020820151816001015560408201518160020160006101000a81548160ff021916908315150217905550606082015181600301559050503373ffffffffffffffffffffffffffffffffffffffff166004547f4ec90e965519d92681267467f775ada5bd214aa92c0dc93d90a5e880ce9ed026836040516107fa91906111de565b60405180910390a36004600081548092919061081590611496565b919050555050565b60008060009054906101000a900473ffffffffffffffffffffffffffffffffffffffff16905090565b6000600360008381526020019081526020016000209050600060056000848152602001908152602001600020549050803410156108b8576040517f08c379a00000000000000000000000000000000000000000000000000000000081526004016108af9061152a565b60405180910390fd5b600260009054906101000a900473ffffffffffffffffffffffffffffffffffffffff1673ffffffffffffffffffffffffffffffffffffffff166323b872dd8360000160009054906101000a900473ffffffffffffffffffffffffffffffffffffffff163385600101546040518463ffffffff1660e01b815260040161093f9392919061154a565b6020604051808303816000875af115801561095e573d6000803e3d6000fd5b505050506040513d601f19601f8201168201806040525081019061098291906115ad565b508160000160009054906101000a900473ffffffffffffffffffffffffffffffffffffffff1673ffffffffffffffffffffffffffffffffffffffff166108fc829081150290604051600060405180830381858888f193505050501580156109ed573d6000803e3d6000fd5b50827ffd51b2c9f55c42d2b72ac683526519563be02fc0107f034ff430c05185ff1b66338460010154604051610a2492919061143e565b60405180910390a2505050565b610a39610cb9565b6001600660008373ffffffffffffffffffffffffffffffffffffffff1673ffffffffffffffffffffffffffffffffffffffff16815260200190815260200160002060006101000a81548160ff02191690831515021790555050565b60056020528060005260406000206000915090505481565b3373ffffffffffffffffffffffffffffffffffffffff166003600084815260200190815260200160002060000160009054906101000a900473ffffffffffffffffffffffffffffffffffffffff1673ffffffffffffffffffffffffffffffffffffffff1614610b50576040517f08c379a0000000000000000000000000000000000000000000000000000000008152600401610b4790611626565b60405180910390fd5b6003600083815260200190815260200160002060020160009054906101000a900460ff16610bb3576040517f08c379a0000000000000000000000000000000000000000000000000000000008152600401610baa90611692565b60405180910390fd5b806005600084815260200190815260200160002081905550817f1ea45e30b31292f9d7c5d37d275b2feca555f13f47dce0fdea2f47e8852ecd7882604051610bfb91906111de565b60405180910390a25050565b60045481565b610c15610cb9565b600073ffffffffffffffffffffffffffffffffffffffff168173ffffffffffffffffffffffffffffffffffffffff1603610c875760006040517f1e4fbdf7000000000000000000000000000000000000000000000000000000008152600401610c7e91906111c3565b60405180910390fd5b610c9081610d40565b50565b600160009054906101000a900473ffffffffffffffffffffffffffffffffffffffff1681565b610cc1610e04565b73ffffffffffffffffffffffffffffffffffffffff16610cdf61081d565b73ffffffffffffffffffffffffffffffffffffffff1614610d3e57610d02610e04565b6040517f118cdaa7000000000000000000000000000000000000000000000000000000008152600401610d3591906111c3565b60405180910390fd5b565b60008060009054906101000a900473ffffffffffffffffffffffffffffffffffffffff169050816000806101000a81548173ffffffffffffffffffffffffffffffffffffffff021916908373ffffffffffffffffffffffffffffffffffffffff1602179055508173ffffffffffffffffffffffffffffffffffffffff168173ffffffffffffffffffffffffffffffffffffffff167f8be0079c531659141344cd1fd0a4f28419497f9722a3daafe3b4186f6b6457e060405160405180910390a35050565b600033905090565b6000604051905090565b600080fd5b600080fd5b6000819050919050565b610e3381610e20565b8114610e3e57600080fd5b50565b600081359050610e5081610e2a565b92915050565b600080fd5b600080fd5b6000601f19601f8301169050919050565b7f4e487b7100000000000000000000000000000000000000000000000000000000600052604160045260246000fd5b610ea982610e60565b810181811067ffffffffffffffff82111715610ec857610ec7610e71565b5b80604052505050565b6000610edb610e0c565b9050610ee78282610ea0565b919050565b600067ffffffffffffffff821115610f0757610f06610e71565b5b610f1082610e60565b9050602081019050919050565b82818337600083830152505050565b6000610f3f610f3a84610eec565b610ed1565b905082815260208101848484011115610f5b57610f5a610e5b565b5b610f66848285610f1d565b509392505050565b600082601f830112610f8357610f82610e56565b5b8135610f93848260208601610f2c565b91505092915050565b60008060408385031215610fb357610fb2610e16565b5b6000610fc185828601610e41565b925050602083013567ffffffffffffffff811115610fe257610fe1610e1b565b5b610fee85828601610f6e565b9150509250929050565b60006020828403121561100e5761100d610e16565b5b600061101c84828501610e41565b91505092915050565b600073ffffffffffffffffffffffffffffffffffffffff82169050919050565b600061105082611025565b9050919050565b61106081611045565b82525050565b61106f81610e20565b82525050565b60008115159050919050565b61108a81611075565b82525050565b60006080820190506110a56000830187611057565b6110b26020830186611066565b6110bf6040830185611081565b6110cc6060830184611066565b95945050505050565b6110de81611045565b81146110e957600080fd5b50565b6000813590506110fb816110d5565b92915050565b60006020828403121561111757611116610e16565b5b6000611125848285016110ec565b91505092915050565b60006020820190506111436000830184611081565b92915050565b6000819050919050565b600061116e61116961116484611025565b611149565b611025565b9050919050565b600061118082611153565b9050919050565b600061119282611175565b9050919050565b6111a281611187565b82525050565b60006020820190506111bd6000830184611199565b92915050565b60006020820190506111d86000830184611057565b92915050565b60006020820190506111f36000830184611066565b92915050565b600080604083850312156112105761120f610e16565b5b600061121e85828601610e41565b925050602061122f85828601610e41565b9150509250929050565b600061124482611175565b9050919050565b61125481611239565b82525050565b600060208201905061126f600083018461124b565b92915050565b600082825260208201905092915050565b7f4e6f7420617574686f72697a6564000000000000000000000000000000000000600082015250565b60006112bc600e83611275565b91506112c782611286565b602082019050919050565b600060208201905081810360008301526112eb816112af565b9050919050565b7f416c726561647920617564697465640000000000000000000000000000000000600082015250565b6000611328600f83611275565b9150611333826112f2565b602082019050919050565b600060208201905081810360008301526113578161131b565b9050919050565b600081519050919050565b60005b8381101561138757808201518184015260208101905061136c565b60008484015250505050565b600061139e8261135e565b6113a88185611275565b93506113b8818560208601611369565b6113c181610e60565b840191505092915050565b60006040820190506113e16000830185611057565b81810360208301526113f38184611393565b90509392505050565b60008151905061140b81610e2a565b92915050565b60006020828403121561142757611426610e16565b5b6000611435848285016113fc565b91505092915050565b60006040820190506114536000830185611057565b6114606020830184611066565b9392505050565b7f4e487b7100000000000000000000000000000000000000000000000000000000600052601160045260246000fd5b60006114a182610e20565b91507fffffffffffffffffffffffffffffffffffffffffffffffffffffffffffffffff82036114d3576114d2611467565b5b600182019050919050565b7f496e73756666696369656e74207061796d656e74000000000000000000000000600082015250565b6000611514601483611275565b915061151f826114de565b602082019050919050565b6000602082019050818103600083015261154381611507565b9050919050565b600060608201905061155f6000830186611057565b61156c6020830185611057565b6115796040830184611066565b949350505050565b61158a81611075565b811461159557600080fd5b50565b6000815190506115a781611581565b92915050565b6000602082840312156115c3576115c2610e16565b5b60006115d184828501611598565b91505092915050565b7f4e6f74206f776e65720000000000000000000000000000000000000000000000600082015250565b6000611610600983611275565b915061161b826115da565b602082019050919050565b6000602082019050818103600083015261163f81611603565b9050919050565b7f4e6f742061756469746564000000000000000000000000000000000000000000600082015250565b600061167c600b83611275565b915061168782611646565b602082019050919050565b600060208201905081810360008301526116ab8161166f565b905091905056fea26469706673582212205b9f65c34f06cb1e1bd989df0df1c903c3c2f9a373bccf2e841d20733b76bde964736f6c63430008160033",
  "linkReferences": {},
  "deployedLinkReferences": {}
}