{
  "_format": "hh-sol-artifact-1",
  "contractName": "GreenNFT",
  "sourceName": "contracts/GreenNFT.sol",
  "abi": [
    {
      "inputs": [
        {
          "internalType": "address",
          "name": "initialOwner",
          "type": "address"
        }
      ],
      "stateMutability": "nonpayable",
      "type": "constructor"
    },
    {
      "inputs": [],
      "name": "ERC721EnumerableForbiddenBatchMint",
      "type": "error"
    },
    {
      "inputs": [
        {
          "internalType": "address",
          "name": "sender",
          "type": "address"
        },
        {
          "internalType": "uint256",
          "name": "tokenId",
          "type": "uint256"
        },
        {
          "internalType": "address",
          "name": "owner",
          "type": "address"
        }
      ],
      "name": "ERC721IncorrectOwner",
      "type": "error"
    },
    {
      "inputs": [
        {
          "internalType": "address",
          "name": "operator",
          "type": "address"
        },
        {
          "internalType": "uint256",
          "name": "tokenId",
          "type": "uint256"
        }
      ],
      "name": "ERC721InsufficientApproval",
      "type": "error"
    },
    {
      "inputs": [
        {
          "internalType": "address",
          "name": "approver",
          "type": "address"
        }
      ],
      "name": "ERC721InvalidApprover",
      "type": "error"
    },
    {
      "inputs": [
        {
          "internalType": "address",
          "name": "operator",
          "type": "address"
        }
      ],
      "name": "ERC721InvalidOperator",
      "type": "error"
    },
    {
      "inputs": [
        {
          "internalType": "address",
          "name": "owner",
          "type": "address"
        }
      ],
      "name": "ERC721InvalidOwner",
      "type": "error"
    },
    {
      "inputs": [
        {
          "internalType": "address",
          "name": "receiver",
          "type": "address"
        }
      ],
      "name": "ERC721InvalidReceiver",
      "type": "error"
    },
    {
      "inputs": [
        {
          "internalType": "address",
          "name": "sender",
          "type": "address"
        }
      ],
      "name": "ERC721InvalidSender",
      "type": "error"
    },
    {
      "inputs": [
        {
          "internalType": "uint256",
          "name": "tokenId",
          "type": "uint256"
        }
      ],
      "name": "ERC721NonexistentToken",
      "type": "error"
    },
    {
      "inputs": [
        {
          "internalType": "address",
          "name": "owner",
          "type": "address"
        },
        {
          "internalType": "uint256",
          "name": "index",
          "type": "uint256"
        }
      ],
      "name": "ERC721OutOfBoundsIndex",
      "type": "error"
    },
    {
      "inputs": [],
      "name": "EnforcedPause",
      "type": "error"
    },
    {
      "inputs": [],
      "name": "ExpectedPause",
      "type": "error"
    },
    {
      "inputs": [
        {
          "internalType": "address",
          "name": "owner",
          "type": "address"
        }
      ],
      "name": "OwnableInvalidOwner",
      "type": "error"
    },
    {
      "inputs": [
        {
          "internalType": "address",
          "name": "account",
          "type": "address"
        }
      ],
      "name": "OwnableUnauthorizedAccount",
      "type": "error"
    },
    {
      "anonymous": false,
      "inputs": [
        {
          "indexed": true,
          "internalType": "address",
          "name": "owner",
          "type": "address"
        },
        {
          "indexed": true,
          "internalType": "address",
          "name": "approved",
          "type": "address"
        },
        {
          "indexed": true,
          "internalType": "uint256",
          "name": "tokenId",
          "type": "uint256"
        }
      ],
      "name": "Approval",
      "type": "event"
    },
    {
      "anonymous": false,
      "inputs": [
        {
          "indexed": true,
          "internalType": "address",
          "name": "owner",
          "type": "address"
        },
        {
          "indexed": true,
          "internalType": "address",
          "name": "operator",
          "type": "address"
        },
        {
          "indexed": false,
          "internalType": "bool",
          "name": "approved",
          "type": "bool"
        }
      ],
      "name": "ApprovalForAll",
      "type": "event"
    },
    {
      "anonymous": false,
      "inputs": [
        {
          "indexed": false,
          "internalType": "uint256",
          "name": "_fromTokenId",
          "type": "uint256"
        },
        {
          "indexed": false,
          "internalType": "uint256",
          "name": "_toTokenId",
          "type": "uint256"
        }
      ],
      "name": "BatchMetadataUpdate",
      "type": "event"
    },
    {
      "anonymous": false,
      "inputs": [
        {
          "indexed": false,
          "internalType": "uint256",
          "name": "_tokenId",
          "type": "uint256"
        }
      ],
      "name": "MetadataUpdate",
      "type": "event"
    },
    {
      "anonymous": false,
      "inputs": [
        {
          "indexed": true,
          "internalType": "address",
          "name": "previousOwner",
          "type": "address"
        },
        {
          "indexed": true,
          "internalType": "address",
          "name": "newOwner",
          "type": "address"
        }
      ],
      "name": "OwnershipTransferred",
      "type": "event"
    },
    {
      "anonymous": false,
      "inputs": [
        {
          "indexed": false,
          "internalType": "address",
          "name": "account",
          "type": "address"
        }
      ],
      "name": "Paused",
      "type": "event"
    },
    {
      "anonymous": false,
      "inputs": [
        {
          "indexed": true,
          "internalType": "address",
          "name": "from",
          "type": "address"
        },
        {
          "indexed": true,
          "internalType": "address",
          "name": "to",
          "type": "address"
        },
        {
          "indexed": true,
          "internalType": "uint256",
          "name": "tokenId",
          "type": "uint256"
        }
      ],
      "name": "Transfer",
      "type": "event"
    },
    {
      "anonymous": false,
      "inputs": [
        {
          "indexed": false,
          "internalType": "address",
          "name": "account",
          "type": "address"
        }
      ],
      "name": "Unpaused",
      "type": "event"
    },
    {
      "inputs": [
        {
          "internalType": "address",
          "name": "to",
          "type": "address"
        },
        {
          "internalType": "uint256",
          "name": "tokenId",
          "type": "uint256"
        }
      ],
      "name": "approve",
      "outputs": [],
      "stateMutability": "nonpayable",
      "type": "function"
    },
    {
      "inputs": [
        {
          "internalType": "address",
          "name": "owner",
          "type": "address"
        }
      ],
      "name": "balanceOf",
      "outputs": [
        {
          "internalType": "uint256",
          "name": "",
          "type": "uint256"
        }
      ],
      "stateMutability": "view",
      "type": "function"
    },
    {
      "inputs": [
        {
          "internalType": "uint256",
          "name": "tokenId",
          "type": "uint256"
        }
      ],
      "name": "burn",
      "outputs": [],
      "stateMutability": "nonpayable",
      "type": "function"
    },
    {
      "inputs": [
        {
          "internalType": "uint256",
          "name": "tokenId",
          "type": "uint256"
        }
      ],
      "name": "getApproved",
      "outputs": [
        {
          "internalType": "address",
          "name": "",
          "type": "address"
        }
      ],
      "stateMutability": "view",
      "type": "function"
    },
    {
      "inputs": [
        {
          "internalType": "address",
          "name": "owner",
          "type": "address"
        },
        {
          "internalType": "address",
          "name": "operator",
          "type": "address"
        }
      ],
      "name": "isApprovedForAll",
      "outputs": [
        {
          "internalType": "bool",
          "name": "",
          "type": "bool"
        }
      ],
      "stateMutability": "view",
      "type": "function"
    },
    {
      "inputs": [],
      "name": "name",
      "outputs": [
        {
          "internalType": "string",
          "name": "",
          "type": "string"
        }
      ],
      "stateMutability": "view",
      "type": "function"
    },
    {
      "inputs": [],
      "name": "owner",
      "outputs": [
        {
          "internalType": "address",
          "name": "",
          "type": "address"
        }
      ],
      "stateMutability": "view",
      "type": "function"
    },
    {
      "inputs": [
        {
          "internalType": "uint256",
          "name": "tokenId",
          "type": "uint256"
        }
      ],
      "name": "ownerOf",
      "outputs": [
        {
          "internalType": "address",
          "name": "",
          "type": "address"
        }
      ],
      "stateMutability": "view",
      "type": "function"
    },
    {
      "inputs": [],
      "name": "pause",
      "outputs": [],
      "stateMutability": "nonpayable",
      "type": "function"
    },
    {
      "inputs": [],
      "name": "paused",
      "outputs": [
        {
          "internalType": "bool",
          "name": "",
          "type": "bool"
        }
      ],
      "stateMutability": "view",
      "type": "function"
    },
    {
      "inputs": [],
      "name": "renounceOwnership",
      "outputs": [],
      "stateMutability": "nonpayable",
      "type": "function"
    },
    {
      "inputs": [
        {
          "internalType": "address",
          "name": "to",
          "type": "address"
        },
        {
          "internalType": "string",
          "name": "uri",
          "type": "string"
        }
      ],
      "name": "safeMint",
      "outputs": [
        {
          "internalType": "uint256",
          "name": "",
          "type": "uint256"
        }
      ],
      "stateMutability": "nonpayable",
      "type": "function"
    },
    {
      "inputs": [
        {
          "internalType": "address",
          "name": "from",
          "type": "address"
        },
        {
          "internalType": "address",
          "name": "to",
          "type": "address"
        },
        {
          "internalType": "uint256",
          "name": "tokenId",
          "type": "uint256"
        }
      ],
      "name": "safeTransferFrom",
      "outputs": [],
      "stateMutability": "nonpayable",
      "type": "function"
    },
    {
      "inputs": [
        {
          "internalType": "address",
          "name": "from",
          "type": "address"
        },
        {
          "internalType": "address",
          "name": "to",
          "type": "address"
        },
        {
          "internalType": "uint256",
          "name": "tokenId",
          "type": "uint256"
        },
        {
          "internalType": "bytes",
          "name": "data",
          "type": "bytes"
        }
      ],
      "name": "safeTransferFrom",
      "outputs": [],
      "stateMutability": "nonpayable",
      "type": "function"
    },
    {
      "inputs": [
        {
          "internalType": "address",
          "name": "operator",
          "type": "address"
        },
        {
          "internalType": "bool",
          "name": "approved",
          "type": "bool"
        }
      ],
      "name": "setApprovalForAll",
      "outputs": [],
      "stateMutability": "nonpayable",
      "type": "function"
    },
    {
      "inputs": [
        {
          "internalType": "bytes4",
          "name": "interfaceId",
          "type": "bytes4"
        }
      ],
      "name": "supportsInterface",
      "outputs": [
        {
          "internalType": "bool",
          "name": "",
          "type": "bool"
        }
      ],
      "stateMutability": "view",
      "type": "function"
    },
    {
      "inputs": [],
      "name": "symbol",
      "outputs": [
        {
          "internalType": "string",
          "name": "",
          "type": "string"
        }
      ],
      "stateMutability": "view",
      "type": "function"
    },
    {
      "inputs": [
        {
          "internalType": "uint256",
          "name": "index",
          "type": "uint256"
        }
      ],
      "name": "tokenByIndex",
      "outputs": [
        {
          "internalType": "uint256",
          "name": "",
          "type": "uint256"
        }
      ],
      "stateMutability": "view",
      "type": "function"
    },
    {
      "inputs": [
        {
          "internalType": "address",
          "name": "owner",
          "type": "address"
        },
        {
          "internalType": "uint256",
          "name": "index",
          "type": "uint256"
        }
      ],
      "name": "tokenOfOwnerByIndex",
      "outputs": [
        {
          "internalType": "uint256",
          "name": "",
          "type": "uint256"
        }
      ],
      "stateMutability": "view",
      "type": "function"
    },
    {
      "inputs": [
        {
          "internalType": "uint256",
          "name": "tokenId",
          "type": "uint256"
        }
      ],
      "name": "tokenURI",
      "outputs": [
        {
          "internalType": "string",
          "name": "",
          "type": "string"
        }
      ],
      "stateMutability": "view",
      "type": "function"
    },
    {
      "inputs": [],
      "name": "totalSupply",
      "outputs": [
        {
          "internalType": "uint256",
          "name": "",
          "type": "uint256"
        }
      ],
      "stateMutability": "view",
      "type": "function"
    },
    {
      "inputs": [
        {
          "internalType": "address",
          "name": "from",
          "type": "address"
        },
        {
          "internalType": "address",
          "name": "to",
          "type": "address"
        },
        {
          "internalType": "uint256",
          "name": "tokenId",
          "type": "uint256"
        }
      ],
      "name": "transferFrom",
      "outputs": [],
      "stateMutability": "nonpayable",
      "type": "function"
    },
    {
      "inputs": [
        {
          "internalType": "address",
          "name": "newOwner",
          "type": "address"
        }
      ],
      "name": "transferOwnership",
      "outputs": [],
      "stateMutability": "nonpayable",
      "type": "function"
    },
    {
      "inputs": [],
      "name": "unpause",
      "outputs": [],
      "stateMutability": "nonpayable",
      "type": "function"
    }
  ],
  "bytecode": "0x60806040523480156200001157600080fd5b50604051620035c7380380620035c7833981810160405281019062000037919062000288565b806040518060400160405280600881526020017f477265656e4e46540000000000000000000000000000000000000000000000008152506040518060400160405280600481526020017f474e4654000000000000000000000000000000000000000000000000000000008152508160009081620000b5919062000534565b508060019081620000c7919062000534565b505050600073ffffffffffffffffffffffffffffffffffffffff168173ffffffffffffffffffffffffffffffffffffffff16036200013f5760006040517f1e4fbdf70000000000000000000000000000000000000000000000000000000081526004016200013691906200062c565b60405180910390fd5b62000150816200015860201b60201c565b505062000649565b6000600b60019054906101000a900473ffffffffffffffffffffffffffffffffffffffff16905081600b60016101000a81548173ffffffffffffffffffffffffffffffffffffffff021916908373ffffffffffffffffffffffffffffffffffffffff1602179055508173ffffffffffffffffffffffffffffffffffffffff168173ffffffffffffffffffffffffffffffffffffffff167f8be0079c531659141344cd1fd0a4f28419497f9722a3daafe3b4186f6b6457e060405160405180910390a35050565b600080fd5b600073ffffffffffffffffffffffffffffffffffffffff82169050919050565b6000620002508262000223565b9050919050565b620002628162000243565b81146200026e57600080fd5b50565b600081519050620002828162000257565b92915050565b600060208284031215620002a157620002a06200021e565b5b6000620002b18482850162000271565b91505092915050565b600081519050919050565b7f4e487b7100000000000000000000000000000000000000000000000000000000600052604160045260246000fd5b7f4e487b7100000000000000000000000000000000000000000000000000000000600052602260045260246000fd5b600060028204905060018216806200033c57607f821691505b602082108103620003525762000351620002f4565b5b50919050565b60008190508160005260206000209050919050565b60006020601f8301049050919050565b600082821b905092915050565b600060088302620003bc7fffffffffffffffffffffffffffffffffffffffffffffffffffffffffffffffff826200037d565b620003c886836200037d565b95508019841693508086168417925050509392505050565b6000819050919050565b6000819050919050565b6000620004156200040f6200040984620003e0565b620003ea565b620003e0565b9050919050565b6000819050919050565b6200043183620003f4565b6200044962000440826200041c565b8484546200038a565b825550505050565b600090565b6200046062000451565b6200046d81848462000426565b505050565b5b8181101562000495576200048960008262000456565b60018101905062000473565b5050565b601f821115620004e457620004ae8162000358565b620004b9846200036d565b81016020851015620004c9578190505b620004e1620004d8856200036d565b83018262000472565b50505b505050565b600082821c905092915050565b60006200050960001984600802620004e9565b1980831691505092915050565b6000620005248383620004f6565b9150826002028217905092915050565b6200053f82620002ba565b67ffffffffffffffff8111156200055b576200055a620002c5565b5b62000567825462000323565b6200057482828562000499565b600060209050601f831160018114620005ac576000841562000597578287015190505b620005a3858262000516565b86555062000613565b601f198416620005bc8662000358565b60005b82811015620005e657848901518255600182019150602085019450602081019050620005bf565b8683101562000606578489015162000602601f891682620004f6565b8355505b6001600288020188555050505b505050505050565b620006268162000243565b82525050565b60006020820190506200064360008301846200061b565b92915050565b612f6e80620006596000396000f3fe608060405234801561001057600080fd5b50600436106101585760003560e01c80636352211e116100c3578063a22cb4651161007c578063a22cb465146103a1578063b88d4fde146103bd578063c87b56dd146103d9578063d204c45e14610409578063e985e9c514610439578063f2fde38b1461046957610158565b80636352211e146102f157806370a0823114610321578063715018a6146103515780638456cb591461035b5780638da5cb5b1461036557806395d89b411461038357610158565b80632f745c59116101155780632f745c59146102315780633f4ba83a1461026157806342842e0e1461026b57806342966c68146102875780634f6ccce7146102a35780635c975abb146102d357610158565b806301ffc9a71461015d57806306fdde031461018d578063081812fc146101ab578063095ea7b3146101db57806318160ddd146101f757806323b872dd14610215575b600080fd5b61017760048036038101906101729190612334565b610485565b604051610184919061237c565b60405180910390f35b610195610497565b6040516101a29190612427565b60405180910390f35b6101c560048036038101906101c0919061247f565b610529565b6040516101d291906124ed565b60405180910390f35b6101f560048036038101906101f09190612534565b610545565b005b6101ff61055b565b60405161020c9190612583565b60405180910390f35b61022f600480360381019061022a919061259e565b610568565b005b61024b60048036038101906102469190612534565b61066a565b6040516102589190612583565b60405180910390f35b610269610713565b005b6102856004803603810190610280919061259e565b610725565b005b6102a1600480360381019061029c919061247f565b610745565b005b6102bd60048036038101906102b8919061247f565b61075c565b6040516102ca9190612583565b60405180910390f35b6102db6107d2565b6040516102e8919061237c565b60405180910390f35b61030b6004803603810190610306919061247f565b6107e9565b60405161031891906124ed565b60405180910390f35b61033b600480360381019061033691906125f1565b6107fb565b6040516103489190612583565b60405180910390f35b6103596108b5565b005b6103636108c9565b005b61036d6108db565b60405161037a91906124ed565b60405180910390f35b61038b610905565b6040516103989190612427565b60405180910390f35b6103bb60048036038101906103b6919061264a565b610997565b005b6103d760048036038101906103d291906127bf565b6109ad565b005b6103f360048036038101906103ee919061247f565b6109d2565b6040516104009190612427565b60405180910390f35b610423600480360381019061041e91906128e3565b6109e4565b6040516104309190612583565b60405180910390f35b610453600480360381019061044e919061293f565b610a27565b604051610460919061237c565b60405180910390f35b610483600480360381019061047e91906125f1565b610abb565b005b600061049082610b41565b9050919050565b6060600080546104a6906129ae565b80601f01602080910402602001604051908101604052809291908181526020018280546104d2906129ae565b801561051f5780601f106104f45761010080835404028352916020019161051f565b820191906000526020600020905b81548152906001019060200180831161050257829003601f168201915b5050505050905090565b600061053482610ba2565b5061053e82610c2a565b9050919050565b6105578282610552610c67565b610c6f565b5050565b6000600880549050905090565b600073ffffffffffffffffffffffffffffffffffffffff168273ffffffffffffffffffffffffffffffffffffffff16036105da5760006040517f64a0ae920000000000000000000000000000000000000000000000000000000081526004016105d191906124ed565b60405180910390fd5b60006105ee83836105e9610c67565b610c81565b90508373ffffffffffffffffffffffffffffffffffffffff168173ffffffffffffffffffffffffffffffffffffffff1614610664578382826040517f64283d7b00000000000000000000000000000000000000000000000000000000815260040161065b939291906129df565b60405180910390fd5b50505050565b6000610675836107fb565b82106106ba5782826040517fa57d13dc0000000000000000000000000000000000000000000000000000000081526004016106b1929190612a16565b60405180910390fd5b600660008473ffffffffffffffffffffffffffffffffffffffff1673ffffffffffffffffffffffffffffffffffffffff168152602001908152602001600020600083815260200190815260200160002054905092915050565b61071b610c97565b610723610d1e565b565b610740838383604051806020016040528060008152506109ad565b505050565b610758600082610753610c67565b610c81565b5050565b600061076661055b565b82106107ac576000826040517fa57d13dc0000000000000000000000000000000000000000000000000000000081526004016107a3929190612a16565b60405180910390fd5b600882815481106107c0576107bf612a3f565b5b90600052602060002001549050919050565b6000600b60009054906101000a900460ff16905090565b60006107f482610ba2565b9050919050565b60008073ffffffffffffffffffffffffffffffffffffffff168273ffffffffffffffffffffffffffffffffffffffff160361086e5760006040517f89c62b6400000000000000000000000000000000000000000000000000000000815260040161086591906124ed565b60405180910390fd5b600360008373ffffffffffffffffffffffffffffffffffffffff1673ffffffffffffffffffffffffffffffffffffffff168152602001908152602001600020549050919050565b6108bd610c97565b6108c76000610d81565b565b6108d1610c97565b6108d9610e47565b565b6000600b60019054906101000a900473ffffffffffffffffffffffffffffffffffffffff16905090565b606060018054610914906129ae565b80601f0160208091040260200160405190810160405280929190818152602001828054610940906129ae565b801561098d5780601f106109625761010080835404028352916020019161098d565b820191906000526020600020905b81548152906001019060200180831161097057829003601f168201915b5050505050905090565b6109a96109a2610c67565b8383610eaa565b5050565b6109b8848484610568565b6109cc6109c3610c67565b85858585611019565b50505050565b60606109dd826111ca565b9050919050565b60006109ee610c97565b6000600c6000815480929190610a0390612a9d565b919050559050610a1384826112dd565b610a1d81846112fb565b8091505092915050565b6000600560008473ffffffffffffffffffffffffffffffffffffffff1673ffffffffffffffffffffffffffffffffffffffff16815260200190815260200160002060008373ffffffffffffffffffffffffffffffffffffffff1673ffffffffffffffffffffffffffffffffffffffff16815260200190815260200160002060009054906101000a900460ff16905092915050565b610ac3610c97565b600073ffffffffffffffffffffffffffffffffffffffff168173ffffffffffffffffffffffffffffffffffffffff1603610b355760006040517f1e4fbdf7000000000000000000000000000000000000000000000000000000008152600401610b2c91906124ed565b60405180910390fd5b610b3e81610d81565b50565b6000634906490660e01b7bffffffffffffffffffffffffffffffffffffffffffffffffffffffff1916827bffffffffffffffffffffffffffffffffffffffffffffffffffffffff19161480610b9b5750610b9a82611357565b5b9050919050565b600080610bae836113d1565b9050600073ffffffffffffffffffffffffffffffffffffffff168173ffffffffffffffffffffffffffffffffffffffff1603610c2157826040517f7e273289000000000000000000000000000000000000000000000000000000008152600401610c189190612583565b60405180910390fd5b80915050919050565b60006004600083815260200190815260200160002060009054906101000a900473ffffffffffffffffffffffffffffffffffffffff169050919050565b600033905090565b610c7c838383600161140e565b505050565b6000610c8e8484846115d3565b90509392505050565b610c9f610c67565b73ffffffffffffffffffffffffffffffffffffffff16610cbd6108db565b73ffffffffffffffffffffffffffffffffffffffff1614610d1c57610ce0610c67565b6040517f118cdaa7000000000000000000000000000000000000000000000000000000008152600401610d1391906124ed565b60405180910390fd5b565b610d266115f1565b6000600b60006101000a81548160ff0219169083151502179055507f5db9ee0a495bf2e6ff9c91a7834c1ba4fdd244a5e8aa4e537bd38aeae4b073aa610d6a610c67565b604051610d7791906124ed565b60405180910390a1565b6000600b60019054906101000a900473ffffffffffffffffffffffffffffffffffffffff16905081600b60016101000a81548173ffffffffffffffffffffffffffffffffffffffff021916908373ffffffffffffffffffffffffffffffffffffffff1602179055508173ffffffffffffffffffffffffffffffffffffffff168173ffffffffffffffffffffffffffffffffffffffff167f8be0079c531659141344cd1fd0a4f28419497f9722a3daafe3b4186f6b6457e060405160405180910390a35050565b610e4f611631565b6001600b60006101000a81548160ff0219169083151502179055507f62e78cea01bee320cd4e420270b5ea74000d11b0c9f74754ebdbfc544b05a258610e93610c67565b604051610ea091906124ed565b60405180910390a1565b600073ffffffffffffffffffffffffffffffffffffffff168273ffffffffffffffffffffffffffffffffffffffff1603610f1b57816040517f5b08ba18000000000000000000000000000000000000000000000000000000008152600401610f1291906124ed565b60405180910390fd5b80600560008573ffffffffffffffffffffffffffffffffffffffff1673ffffffffffffffffffffffffffffffffffffffff16815260200190815260200160002060008473ffffffffffffffffffffffffffffffffffffffff1673ffffffffffffffffffffffffffffffffffffffff16815260200190815260200160002060006101000a81548160ff0219169083151502179055508173ffffffffffffffffffffffffffffffffffffffff168373ffffffffffffffffffffffffffffffffffffffff167f17307eab39ab6107e8899845ad3d59bd9653f200f220920489ca2b5937696c318360405161100c919061237c565b60405180910390a3505050565b60008373ffffffffffffffffffffffffffffffffffffffff163b11156111c3578273ffffffffffffffffffffffffffffffffffffffff1663150b7a02868685856040518563ffffffff1660e01b81526004016110789493929190612b3a565b6020604051808303816000875af19250505080156110b457506040513d601f19601f820116820180604052508101906110b19190612b9b565b60015b611138573d80600081146110e4576040519150601f19603f3d011682016040523d82523d6000602084013e6110e9565b606091505b50600081510361113057836040517f64a0ae9200000000000000000000000000000000000000000000000000000000815260040161112791906124ed565b60405180910390fd5b805181602001fd5b63150b7a0260e01b7bffffffffffffffffffffffffffffffffffffffffffffffffffffffff1916817bffffffffffffffffffffffffffffffffffffffffffffffffffffffff1916146111c157836040517f64a0ae920000000000000000000000000000000000000000000000000000000081526004016111b891906124ed565b60405180910390fd5b505b5050505050565b60606111d582610ba2565b506000600a600084815260200190815260200160002080546111f6906129ae565b80601f0160208091040260200160405190810160405280929190818152602001828054611222906129ae565b801561126f5780601f106112445761010080835404028352916020019161126f565b820191906000526020600020905b81548152906001019060200180831161125257829003601f168201915b505050505090506000611280611672565b905060008151036112955781925050506112d8565b6000825111156112ca5780826040516020016112b2929190612c04565b604051602081830303815290604052925050506112d8565b6112d384611689565b925050505b919050565b6112f78282604051806020016040528060008152506116f2565b5050565b80600a6000848152602001908152602001600020908161131b9190612dd4565b507ff8e1a15aba9398e019f0b49df1a4fde98ee17ae345cb5f6b5e2c27f5033e8ce78260405161134b9190612583565b60405180910390a15050565b60007f780e9d63000000000000000000000000000000000000000000000000000000007bffffffffffffffffffffffffffffffffffffffffffffffffffffffff1916827bffffffffffffffffffffffffffffffffffffffffffffffffffffffff191614806113ca57506113c982611716565b5b9050919050565b60006002600083815260200190815260200160002060009054906101000a900473ffffffffffffffffffffffffffffffffffffffff169050919050565b80806114475750600073ffffffffffffffffffffffffffffffffffffffff168273ffffffffffffffffffffffffffffffffffffffff1614155b1561157b57600061145784610ba2565b9050600073ffffffffffffffffffffffffffffffffffffffff168373ffffffffffffffffffffffffffffffffffffffff16141580156114c257508273ffffffffffffffffffffffffffffffffffffffff168173ffffffffffffffffffffffffffffffffffffffff1614155b80156114d557506114d38184610a27565b155b1561151757826040517fa9fbf51f00000000000000000000000000000000000000000000000000000000815260040161150e91906124ed565b60405180910390fd5b811561157957838573ffffffffffffffffffffffffffffffffffffffff168273ffffffffffffffffffffffffffffffffffffffff167f8c5be1e5ebec7d5bd14f71427d1e84f3dd0314c0f7b2291e5b200ac8c7c3b92560405160405180910390a45b505b836004600085815260200190815260200160002060006101000a81548173ffffffffffffffffffffffffffffffffffffffff021916908373ffffffffffffffffffffffffffffffffffffffff16021790555050505050565b60006115dd611631565b6115e88484846117f8565b90509392505050565b6115f96107d2565b61162f576040517f8dfc202b00000000000000000000000000000000000000000000000000000000815260040160405180910390fd5b565b6116396107d2565b15611670576040517fd93c066500000000000000000000000000000000000000000000000000000000815260040160405180910390fd5b565b606060405180602001604052806000815250905090565b606061169482610ba2565b50600061169f611672565b905060008151116116bf57604051806020016040528060008152506116ea565b806116c984611915565b6040516020016116da929190612c04565b6040516020818303038152906040525b915050919050565b6116fc83836119e3565b611711611707610c67565b6000858585611019565b505050565b60007f80ac58cd000000000000000000000000000000000000000000000000000000007bffffffffffffffffffffffffffffffffffffffffffffffffffffffff1916827bffffffffffffffffffffffffffffffffffffffffffffffffffffffff191614806117e157507f5b5e139f000000000000000000000000000000000000000000000000000000007bffffffffffffffffffffffffffffffffffffffffffffffffffffffff1916827bffffffffffffffffffffffffffffffffffffffffffffffffffffffff1916145b806117f157506117f082611adc565b5b9050919050565b600080611806858585611b46565b9050600073ffffffffffffffffffffffffffffffffffffffff168173ffffffffffffffffffffffffffffffffffffffff160361184a5761184584611d60565b611889565b8473ffffffffffffffffffffffffffffffffffffffff168173ffffffffffffffffffffffffffffffffffffffff1614611888576118878185611da9565b5b5b600073ffffffffffffffffffffffffffffffffffffffff168573ffffffffffffffffffffffffffffffffffffffff16036118cb576118c684611e94565b61190a565b8473ffffffffffffffffffffffffffffffffffffffff168173ffffffffffffffffffffffffffffffffffffffff1614611909576119088585611f65565b5b5b809150509392505050565b60606000600161192484611ff0565b01905060008167ffffffffffffffff81111561194357611942612694565b5b6040519080825280601f01601f1916602001820160405280156119755781602001600182028036833780820191505090505b509050600082602001820190505b6001156119d8578080600190039150507f3031323334353637383961626364656600000000000000000000000000000000600a86061a8153600a85816119cc576119cb612ea6565b5b04945060008503611983575b819350505050919050565b600073ffffffffffffffffffffffffffffffffffffffff168273ffffffffffffffffffffffffffffffffffffffff1603611a555760006040517f64a0ae92000000000000000000000000000000000000000000000000000000008152600401611a4c91906124ed565b60405180910390fd5b6000611a6383836000610c81565b9050600073ffffffffffffffffffffffffffffffffffffffff168173ffffffffffffffffffffffffffffffffffffffff1614611ad75760006040517f73c6ac6e000000000000000000000000000000000000000000000000000000008152600401611ace91906124ed565b60405180910390fd5b505050565b60007f01ffc9a7000000000000000000000000000000000000000000000000000000007bffffffffffffffffffffffffffffffffffffffffffffffffffffffff1916827bffffffffffffffffffffffffffffffffffffffffffffffffffffffff1916149050919050565b600080611b52846113d1565b9050600073ffffffffffffffffffffffffffffffffffffffff168373ffffffffffffffffffffffffffffffffffffffff1614611b9457611b93818486612143565b5b600073ffffffffffffffffffffffffffffffffffffffff168173ffffffffffffffffffffffffffffffffffffffff1614611c2557611bd660008560008061140e565b6001600360008373ffffffffffffffffffffffffffffffffffffffff1673ffffffffffffffffffffffffffffffffffffffff168152602001908152602001600020600082825403925050819055505b600073ffffffffffffffffffffffffffffffffffffffff168573ffffffffffffffffffffffffffffffffffffffff1614611ca8576001600360008773ffffffffffffffffffffffffffffffffffffffff1673ffffffffffffffffffffffffffffffffffffffff168152602001908152602001600020600082825401925050819055505b846002600086815260200190815260200160002060006101000a81548173ffffffffffffffffffffffffffffffffffffffff021916908373ffffffffffffffffffffffffffffffffffffffff160217905550838573ffffffffffffffffffffffffffffffffffffffff168273ffffffffffffffffffffffffffffffffffffffff167fddf252ad1be2c89b69c2b068fc378daa952ba7f163c4a11628f55a4df523b3ef60405160405180910390a4809150509392505050565b6008805490506009600083815260200190815260200160002081905550600881908060018154018082558091505060019003906000526020600020016000909190919091505550565b6000611db4836107fb565b90506000600760008481526020019081526020016000205490506000600660008673ffffffffffffffffffffffffffffffffffffffff1673ffffffffffffffffffffffffffffffffffffffff1681526020019081526020016000209050828214611e605760008160008581526020019081526020016000205490508082600085815260200190815260200160002081905550826007600083815260200190815260200160002081905550505b6007600085815260200190815260200160002060009055806000848152602001908152602001600020600090555050505050565b60006001600880549050611ea89190612ed5565b9050600060096000848152602001908152602001600020549050600060088381548110611ed857611ed7612a3f565b5b906000526020600020015490508060088381548110611efa57611ef9612a3f565b5b906000526020600020018190555081600960008381526020019081526020016000208190555060096000858152602001908152602001600020600090556008805480611f4957611f48612f09565b5b6001900381819060005260206000200160009055905550505050565b60006001611f72846107fb565b611f7c9190612ed5565b905081600660008573ffffffffffffffffffffffffffffffffffffffff1673ffffffffffffffffffffffffffffffffffffffff168152602001908152602001600020600083815260200190815260200160002081905550806007600084815260200190815260200160002081905550505050565b600080600090507a184f03e93ff9f4daa797ed6e38ed64bf6a1f010000000000000000831061204e577a184f03e93ff9f4daa797ed6e38ed64bf6a1f010000000000000000838161204457612043612ea6565b5b0492506040810190505b6d04ee2d6d415b85acef8100000000831061208b576d04ee2d6d415b85acef8100000000838161208157612080612ea6565b5b0492506020810190505b662386f26fc1000083106120ba57662386f26fc1000083816120b0576120af612ea6565b5b0492506010810190505b6305f5e10083106120e3576305f5e10083816120d9576120d8612ea6565b5b0492506008810190505b61271083106121085761271083816120fe576120fd612ea6565b5b0492506004810190505b6064831061212b576064838161212157612120612ea6565b5b0492506002810190505b600a831061213a576001810190505b80915050919050565b61214e838383612207565b61220257600073ffffffffffffffffffffffffffffffffffffffff168373ffffffffffffffffffffffffffffffffffffffff16036121c357806040517f7e2732890000000000000000000000000000000000000000000000000000000081526004016121ba9190612583565b60405180910390fd5b81816040517f177e802f0000000000000000000000000000000000000000000000000000000081526004016121f9929190612a16565b60405180910390fd5b505050565b60008073ffffffffffffffffffffffffffffffffffffffff168373ffffffffffffffffffffffffffffffffffffffff16141580156122bf57508273ffffffffffffffffffffffffffffffffffffffff168473ffffffffffffffffffffffffffffffffffffffff161480612280575061227f8484610a27565b5b806122be57508273ffffffffffffffffffffffffffffffffffffffff166122a683610c2a565b73ffffffffffffffffffffffffffffffffffffffff16145b5b90509392505050565b6000604051905090565b600080fd5b600080fd5b60007fffffffff0000000000000000000000000000000000000000000000000000000082169050919050565b612311816122dc565b811461231c57600080fd5b50565b60008135905061232e81612308565b92915050565b60006020828403121561234a576123496122d2565b5b60006123588482850161231f565b91505092915050565b60008115159050919050565b61237681612361565b82525050565b6000602082019050612391600083018461236d565b92915050565b600081519050919050565b600082825260208201905092915050565b60005b838110156123d15780820151818401526020810190506123b6565b60008484015250505050565b6000601f19601f8301169050919050565b60006123f982612397565b61240381856123a2565b93506124138185602086016123b3565b61241c816123dd565b840191505092915050565b6000602082019050818103600083015261244181846123ee565b905092915050565b6000819050919050565b61245c81612449565b811461246757600080fd5b50565b60008135905061247981612453565b92915050565b600060208284031215612495576124946122d2565b5b60006124a38482850161246a565b91505092915050565b600073ffffffffffffffffffffffffffffffffffffffff82169050919050565b60006124d7826124ac565b9050919050565b6124e7816124cc565b82525050565b600060208201905061250260008301846124de565b92915050565b612511816124cc565b811461251c57600080fd5b50565b60008135905061252e81612508565b92915050565b6000806040838503121561254b5761254a6122d2565b5b60006125598582860161251f565b925050602061256a8582860161246a565b9150509250929050565b61257d81612449565b82525050565b60006020820190506125986000830184612574565b92915050565b6000806000606084860312156125b7576125b66122d2565b5b60006125c58682870161251f565b93505060206125d68682870161251f565b92505060406125e78682870161246a565b9150509250925092565b600060208284031215612607576126066122d2565b5b60006126158482850161251f565b91505092915050565b61262781612361565b811461263257600080fd5b50565b6000813590506126448161261e565b92915050565b60008060408385031215612661576126606122d2565b5b600061266f8582860161251f565b925050602061268085828601612635565b9150509250929050565b600080fd5b600080fd5b7f4e487b7100000000000000000000000000000000000000000000000000000000600052604160045260246000fd5b6126cc826123dd565b810181811067ffffffffffffffff821117156126eb576126ea612694565b5b80604052505050565b60006126fe6122c8565b905061270a82826126c3565b919050565b600067ffffffffffffffff82111561272a57612729612694565b5b612733826123dd565b9050602081019050919050565b82818337600083830152505050565b600061276261275d8461270f565b6126f4565b90508281526020810184848401111561277e5761277d61268f565b5b612789848285612740565b509392505050565b600082601f8301126127a6576127a561268a565b5b81356127b684826020860161274f565b91505092915050565b600080600080608085870312156127d9576127d86122d2565b5b60006127e78782880161251f565b94505060206127f88782880161251f565b93505060406128098782880161246a565b925050606085013567ffffffffffffffff81111561282a576128296122d7565b5b61283687828801612791565b91505092959194509250565b600067ffffffffffffffff82111561285d5761285c612694565b5b612866826123dd565b9050602081019050919050565b600061288661288184612842565b6126f4565b9050828152602081018484840111156128a2576128a161268f565b5b6128ad848285612740565b509392505050565b600082601f8301126128ca576128c961268a565b5b81356128da848260208601612873565b91505092915050565b600080604083850312156128fa576128f96122d2565b5b60006129088582860161251f565b925050602083013567ffffffffffffffff811115612929576129286122d7565b5b612935858286016128b5565b9150509250929050565b60008060408385031215612956576129556122d2565b5b60006129648582860161251f565b92505060206129758582860161251f565b9150509250929050565b7f4e487b7100000000000000000000000000000000000000000000000000000000600052602260045260246000fd5b600060028204905060018216806129c657607f821691505b6020821081036129d9576129d861297f565b5b50919050565b60006060820190506129f460008301866124de565b612a016020830185612574565b612a0e60408301846124de565b949350505050565b6000604082019050612a2b60008301856124de565b612a386020830184612574565b9392505050565b7f4e487b7100000000000000000000000000000000000000000000000000000000600052603260045260246000fd5b7f4e487b7100000000000000000000000000000000000000000000000000000000600052601160045260246000fd5b6000612aa882612449565b91507fffffffffffffffffffffffffffffffffffffffffffffffffffffffffffffffff8203612ada57612ad9612a6e565b5b600182019050919050565b600081519050919050565b600082825260208201905092915050565b6000612b0c82612ae5565b612b168185612af0565b9350612b268185602086016123b3565b612b2f816123dd565b840191505092915050565b6000608082019050612b4f60008301876124de565b612b5c60208301866124de565b612b696040830185612574565b8181036060830152612b7b8184612b01565b905095945050505050565b600081519050612b9581612308565b92915050565b600060208284031215612bb157612bb06122d2565b5b6000612bbf84828501612b86565b91505092915050565b600081905092915050565b6000612bde82612397565b612be88185612bc8565b9350612bf88185602086016123b3565b80840191505092915050565b6000612c108285612bd3565b9150612c1c8284612bd3565b91508190509392505050565b60008190508160005260206000209050919050565b60006020601f8301049050919050565b600082821b905092915050565b600060088302612c8a7fffffffffffffffffffffffffffffffffffffffffffffffffffffffffffffffff82612c4d565b612c948683612c4d565b95508019841693508086168417925050509392505050565b6000819050919050565b6000612cd1612ccc612cc784612449565b612cac565b612449565b9050919050565b6000819050919050565b612ceb83612cb6565b612cff612cf782612cd8565b848454612c5a565b825550505050565b600090565b612d14612d07565b612d1f818484612ce2565b505050565b5b81811015612d4357612d38600082612d0c565b600181019050612d25565b5050565b601f821115612d8857612d5981612c28565b612d6284612c3d565b81016020851015612d71578190505b612d85612d7d85612c3d565b830182612d24565b50505b505050565b600082821c905092915050565b6000612dab60001984600802612d8d565b1980831691505092915050565b6000612dc48383612d9a565b9150826002028217905092915050565b612ddd82612397565b67ffffffffffffffff811115612df657612df5612694565b5b612e0082546129ae565b612e0b828285612d47565b600060209050601f831160018114612e3e5760008415612e2c578287015190505b612e368582612db8565b865550612e9e565b601f198416612e4c86612c28565b60005b82811015612e7457848901518255600182019150602085019450602081019050612e4f565b86831015612e915784890151612e8d601f891682612d9a565b8355505b6001600288020188555050505b505050505050565b7f4e487b7100000000000000000000000000000000000000000000000000000000600052601260045260246000fd5b6000612ee082612449565b9150612eeb83612449565b9250828203905081811115612f0357612f02612a6e565b5b92915050565b7f4e487b7100000000000000000000000000000000000000000000000000000000600052603160045260246000fdfea2646970667358221220cac22f8398dab0647ee683fe1df9181875b6c24f0b4c9f9c25e938cca3f8446f64736f6c63430008160033",
  "linkReferences": {},
  "deployedLinkReferences": {}
}